{
	"data": {
		"bytecode": {
			"linkReferences": {},
			"object": "60806040525f80553480156011575f80fd5b506114378061001f5f395ff3fe608060405234801561000f575f80fd5b5060043610610091575f3560e01c8063b30906d411610064578063b30906d414610155578063cd8e654314610185578063d66d6c10146101b7578063e8281712146101d3578063ef6c5b1e1461020357610091565b80632d8e4b5f1461009557806353c0c8a6146100c557806359abede1146100f55780637c7e723f14610125575b5f80fd5b6100af60048036038101906100aa9190610bf3565b610233565b6040516100bc9190610c5d565b60405180910390f35b6100df60048036038101906100da9190610bf3565b610263565b6040516100ec9190610c85565b60405180910390f35b61010f600480360381019061010a9190610bf3565b610308565b60405161011c9190610c5d565b60405180910390f35b61013f600480360381019061013a9190610bf3565b610346565b60405161014c9190610c85565b60405180910390f35b61016f600480360381019061016a9190610bf3565b610365565b60405161017c9190610d0e565b60405180910390f35b61019f600480360381019061019a9190610e5a565b610400565b6040516101ae93929190610ea1565b60405180910390f35b6101d160048036038101906101cc9190610ed6565b61043e565b005b6101ed60048036038101906101e89190610bf3565b610644565b6040516101fa9190610c85565b60405180910390f35b61021d60048036038101906102189190610bf3565b610659565b60405161022a9190610c85565b60405180910390f35b6003602052805f5260405f205f915054906101000a900473ffffffffffffffffffffffffffffffffffffffff1681565b5f806102863373ffffffffffffffffffffffffffffffffffffffff1660146106fe565b61028f8461093c565b6040516020016102a0929190610f4e565b60405160208183030381529060405290505f6002826040516102c29190610f71565b90815260200160405180910390206040518060600160405290815f8201548152602001600182015481526020016002820154815250509050806020015192505050919050565b5f8060035f8481526020019081526020015f205f9054906101000a900473ffffffffffffffffffffffffffffffffffffffff16905080915050919050565b5f8060045f8481526020019081526020015f2054905080915050919050565b6001602052805f5260405f205f91509050805461038190610fb4565b80601f01602080910402602001604051908101604052809291908181526020018280546103ad90610fb4565b80156103f85780601f106103cf576101008083540402835291602001916103f8565b820191905f5260205f20905b8154815290600101906020018083116103db57829003601f168201915b505050505081565b6002818051602081018201805184825260208301602085012081835280955050505050505f91509050805f0154908060010154908060020154905083565b600181148061044d5750600281145b61048c576040517f08c379a00000000000000000000000000000000000000000000000000000000081526004016104839061102e565b60405180910390fd5b5f6104ae3373ffffffffffffffffffffffffffffffffffffffff1660146106fe565b6104b78361093c565b6040516020016104c8929190610f4e565b60405160208183030381529060405290505f6002826040516104ea9190610f71565b90815260200160405180910390209050838160010154101561063e575f60015f546105159190611079565b90505f825f015490505f60405180606001604052808481526020018881526020014281525090508060028660405161054d9190610f71565b90815260200160405180910390205f820151815f015560208201518160010155604082015181600201559050508460015f8581526020019081526020015f2090816105989190611249565b5060015f8381526020019081526020015f205f6105b59190610b57565b825f819055508660045f8881526020019081526020015f2054101561063a578660045f8881526020019081526020015f20819055503360035f8881526020019081526020015f205f6101000a81548173ffffffffffffffffffffffffffffffffffffffff021916908373ffffffffffffffffffffffffffffffffffffffff1602179055505b5050505b50505050565b6004602052805f5260405f205f915090505481565b5f8061067c3373ffffffffffffffffffffffffffffffffffffffff1660146106fe565b6106858461093c565b604051602001610696929190610f4e565b60405160208183030381529060405290505f6002826040516106b89190610f71565b90815260200160405180910390206040518060600160405290815f8201548152602001600182015481526020016002820154815250509050806040015192505050919050565b60605f8390505f60028460026107149190611318565b61071e9190611079565b67ffffffffffffffff81111561073757610736610d36565b5b6040519080825280601f01601f1916602001820160405280156107695781602001600182028036833780820191505090505b5090507f3000000000000000000000000000000000000000000000000000000000000000815f815181106107a05761079f611359565b5b60200101907effffffffffffffffffffffffffffffffffffffffffffffffffffffffffffff191690815f1a9053507f78000000000000000000000000000000000000000000000000000000000000008160018151811061080357610802611359565b5b60200101907effffffffffffffffffffffffffffffffffffffffffffffffffffffffffffff191690815f1a9053505f60018560026108419190611318565b61084b9190611079565b90505b60018111156108ea577f3031323334353637383961626364656600000000000000000000000000000000600f84166010811061088d5761088c611359565b5b1a60f81b8282815181106108a4576108a3611359565b5b60200101907effffffffffffffffffffffffffffffffffffffffffffffffffffffffffffff191690815f1a905350600483901c9250806108e390611386565b905061084e565b505f82146109315784846040517fe22e27eb0000000000000000000000000000000000000000000000000000000081526004016109289291906113ad565b60405180910390fd5b809250505092915050565b60605f600161094a84610a06565b0190505f8167ffffffffffffffff81111561096857610967610d36565b5b6040519080825280601f01601f19166020018201604052801561099a5781602001600182028036833780820191505090505b5090505f82602001820190505b6001156109fb578080600190039150507f3031323334353637383961626364656600000000000000000000000000000000600a86061a8153600a85816109f0576109ef6113d4565b5b0494505f85036109a7575b819350505050919050565b5f805f90507a184f03e93ff9f4daa797ed6e38ed64bf6a1f0100000000000000008310610a62577a184f03e93ff9f4daa797ed6e38ed64bf6a1f0100000000000000008381610a5857610a576113d4565b5b0492506040810190505b6d04ee2d6d415b85acef81000000008310610a9f576d04ee2d6d415b85acef81000000008381610a9557610a946113d4565b5b0492506020810190505b662386f26fc100008310610ace57662386f26fc100008381610ac457610ac36113d4565b5b0492506010810190505b6305f5e1008310610af7576305f5e1008381610aed57610aec6113d4565b5b0492506008810190505b6127108310610b1c576127108381610b1257610b116113d4565b5b0492506004810190505b60648310610b3f5760648381610b3557610b346113d4565b5b0492506002810190505b600a8310610b4e576001810190505b80915050919050565b508054610b6390610fb4565b5f825580601f10610b745750610b91565b601f0160209004905f5260205f2090810190610b909190610b94565b5b50565b5b80821115610bab575f815f905550600101610b95565b5090565b5f604051905090565b5f80fd5b5f80fd5b5f819050919050565b610bd281610bc0565b8114610bdc575f80fd5b50565b5f81359050610bed81610bc9565b92915050565b5f60208284031215610c0857610c07610bb8565b5b5f610c1584828501610bdf565b91505092915050565b5f73ffffffffffffffffffffffffffffffffffffffff82169050919050565b5f610c4782610c1e565b9050919050565b610c5781610c3d565b82525050565b5f602082019050610c705f830184610c4e565b92915050565b610c7f81610bc0565b82525050565b5f602082019050610c985f830184610c76565b92915050565b5f81519050919050565b5f82825260208201905092915050565b8281835e5f83830152505050565b5f601f19601f8301169050919050565b5f610ce082610c9e565b610cea8185610ca8565b9350610cfa818560208601610cb8565b610d0381610cc6565b840191505092915050565b5f6020820190508181035f830152610d268184610cd6565b905092915050565b5f80fd5b5f80fd5b7f4e487b71000000000000000000000000000000000000000000000000000000005f52604160045260245ffd5b610d6c82610cc6565b810181811067ffffffffffffffff82111715610d8b57610d8a610d36565b5b80604052505050565b5f610d9d610baf565b9050610da98282610d63565b919050565b5f67ffffffffffffffff821115610dc857610dc7610d36565b5b610dd182610cc6565b9050602081019050919050565b828183375f83830152505050565b5f610dfe610df984610dae565b610d94565b905082815260208101848484011115610e1a57610e19610d32565b5b610e25848285610dde565b509392505050565b5f82601f830112610e4157610e40610d2e565b5b8135610e51848260208601610dec565b91505092915050565b5f60208284031215610e6f57610e6e610bb8565b5b5f82013567ffffffffffffffff811115610e8c57610e8b610bbc565b5b610e9884828501610e2d565b91505092915050565b5f606082019050610eb45f830186610c76565b610ec16020830185610c76565b610ece6040830184610c76565b949350505050565b5f8060408385031215610eec57610eeb610bb8565b5b5f610ef985828601610bdf565b9250506020610f0a85828601610bdf565b9150509250929050565b5f81905092915050565b5f610f2882610c9e565b610f328185610f14565b9350610f42818560208601610cb8565b80840191505092915050565b5f610f598285610f1e565b9150610f658284610f1e565b91508190509392505050565b5f610f7c8284610f1e565b915081905092915050565b7f4e487b71000000000000000000000000000000000000000000000000000000005f52602260045260245ffd5b5f6002820490506001821680610fcb57607f821691505b602082108103610fde57610fdd610f87565b5b50919050565b7f67616d652069642069732031206f722032206f6e6c79000000000000000000005f82015250565b5f611018601683610ca8565b915061102382610fe4565b602082019050919050565b5f6020820190508181035f8301526110458161100c565b9050919050565b7f4e487b71000000000000000000000000000000000000000000000000000000005f52601160045260245ffd5b5f61108382610bc0565b915061108e83610bc0565b92508282019050808211156110a6576110a561104c565b5b92915050565b5f819050815f5260205f209050919050565b5f6020601f8301049050919050565b5f82821b905092915050565b5f600883026111087fffffffffffffffffffffffffffffffffffffffffffffffffffffffffffffffff826110cd565b61111286836110cd565b95508019841693508086168417925050509392505050565b5f819050919050565b5f61114d61114861114384610bc0565b61112a565b610bc0565b9050919050565b5f819050919050565b61116683611133565b61117a61117282611154565b8484546110d9565b825550505050565b5f90565b61118e611182565b61119981848461115d565b505050565b5b818110156111bc576111b15f82611186565b60018101905061119f565b5050565b601f821115611201576111d2816110ac565b6111db846110be565b810160208510156111ea578190505b6111fe6111f6856110be565b83018261119e565b50505b505050565b5f82821c905092915050565b5f6112215f1984600802611206565b1980831691505092915050565b5f6112398383611212565b9150826002028217905092915050565b61125282610c9e565b67ffffffffffffffff81111561126b5761126a610d36565b5b6112758254610fb4565b6112808282856111c0565b5f60209050601f8311600181146112b1575f841561129f578287015190505b6112a9858261122e565b865550611310565b601f1984166112bf866110ac565b5f5b828110156112e6578489015182556001820191506020850194506020810190506112c1565b8683101561130357848901516112ff601f891682611212565b8355505b6001600288020188555050505b505050505050565b5f61132282610bc0565b915061132d83610bc0565b925082820261133b81610bc0565b915082820484148315176113525761135161104c565b5b5092915050565b7f4e487b71000000000000000000000000000000000000000000000000000000005f52603260045260245ffd5b5f61139082610bc0565b91505f82036113a2576113a161104c565b5b600182039050919050565b5f6040820190506113c05f830185610c76565b6113cd6020830184610c76565b9392505050565b7f4e487b71000000000000000000000000000000000000000000000000000000005f52601260045260245ffdfea2646970667358221220dab5394fa0cc48eef078fd6de574c69cf0a1e93daeb4d723db2e59e7dd464bcb64736f6c634300081a0033",
			"opcodes": "PUSH1 0x80 PUSH1 0x40 MSTORE PUSH0 DUP1 SSTORE CALLVALUE DUP1 ISZERO PUSH1 0x11 JUMPI PUSH0 DUP1 REVERT JUMPDEST POP PUSH2 0x1437 DUP1 PUSH2 0x1F PUSH0 CODECOPY PUSH0 RETURN INVALID PUSH1 0x80 PUSH1 0x40 MSTORE CALLVALUE DUP1 ISZERO PUSH2 0xF JUMPI PUSH0 DUP1 REVERT JUMPDEST POP PUSH1 0x4 CALLDATASIZE LT PUSH2 0x91 JUMPI PUSH0 CALLDATALOAD PUSH1 0xE0 SHR DUP1 PUSH4 0xB30906D4 GT PUSH2 0x64 JUMPI DUP1 PUSH4 0xB30906D4 EQ PUSH2 0x155 JUMPI DUP1 PUSH4 0xCD8E6543 EQ PUSH2 0x185 JUMPI DUP1 PUSH4 0xD66D6C10 EQ PUSH2 0x1B7 JUMPI DUP1 PUSH4 0xE8281712 EQ PUSH2 0x1D3 JUMPI DUP1 PUSH4 0xEF6C5B1E EQ PUSH2 0x203 JUMPI PUSH2 0x91 JUMP JUMPDEST DUP1 PUSH4 0x2D8E4B5F EQ PUSH2 0x95 JUMPI DUP1 PUSH4 0x53C0C8A6 EQ PUSH2 0xC5 JUMPI DUP1 PUSH4 0x59ABEDE1 EQ PUSH2 0xF5 JUMPI DUP1 PUSH4 0x7C7E723F EQ PUSH2 0x125 JUMPI JUMPDEST PUSH0 DUP1 REVERT JUMPDEST PUSH2 0xAF PUSH1 0x4 DUP1 CALLDATASIZE SUB DUP2 ADD SWAP1 PUSH2 0xAA SWAP2 SWAP1 PUSH2 0xBF3 JUMP JUMPDEST PUSH2 0x233 JUMP JUMPDEST PUSH1 0x40 MLOAD PUSH2 0xBC SWAP2 SWAP1 PUSH2 0xC5D JUMP JUMPDEST PUSH1 0x40 MLOAD DUP1 SWAP2 SUB SWAP1 RETURN JUMPDEST PUSH2 0xDF PUSH1 0x4 DUP1 CALLDATASIZE SUB DUP2 ADD SWAP1 PUSH2 0xDA SWAP2 SWAP1 PUSH2 0xBF3 JUMP JUMPDEST PUSH2 0x263 JUMP JUMPDEST PUSH1 0x40 MLOAD PUSH2 0xEC SWAP2 SWAP1 PUSH2 0xC85 JUMP JUMPDEST PUSH1 0x40 MLOAD DUP1 SWAP2 SUB SWAP1 RETURN JUMPDEST PUSH2 0x10F PUSH1 0x4 DUP1 CALLDATASIZE SUB DUP2 ADD SWAP1 PUSH2 0x10A SWAP2 SWAP1 PUSH2 0xBF3 JUMP JUMPDEST PUSH2 0x308 JUMP JUMPDEST PUSH1 0x40 MLOAD PUSH2 0x11C SWAP2 SWAP1 PUSH2 0xC5D JUMP JUMPDEST PUSH1 0x40 MLOAD DUP1 SWAP2 SUB SWAP1 RETURN JUMPDEST PUSH2 0x13F PUSH1 0x4 DUP1 CALLDATASIZE SUB DUP2 ADD SWAP1 PUSH2 0x13A SWAP2 SWAP1 PUSH2 0xBF3 JUMP JUMPDEST PUSH2 0x346 JUMP JUMPDEST PUSH1 0x40 MLOAD PUSH2 0x14C SWAP2 SWAP1 PUSH2 0xC85 JUMP JUMPDEST PUSH1 0x40 MLOAD DUP1 SWAP2 SUB SWAP1 RETURN JUMPDEST PUSH2 0x16F PUSH1 0x4 DUP1 CALLDATASIZE SUB DUP2 ADD SWAP1 PUSH2 0x16A SWAP2 SWAP1 PUSH2 0xBF3 JUMP JUMPDEST PUSH2 0x365 JUMP JUMPDEST PUSH1 0x40 MLOAD PUSH2 0x17C SWAP2 SWAP1 PUSH2 0xD0E JUMP JUMPDEST PUSH1 0x40 MLOAD DUP1 SWAP2 SUB SWAP1 RETURN JUMPDEST PUSH2 0x19F PUSH1 0x4 DUP1 CALLDATASIZE SUB DUP2 ADD SWAP1 PUSH2 0x19A SWAP2 SWAP1 PUSH2 0xE5A JUMP JUMPDEST PUSH2 0x400 JUMP JUMPDEST PUSH1 0x40 MLOAD PUSH2 0x1AE SWAP4 SWAP3 SWAP2 SWAP1 PUSH2 0xEA1 JUMP JUMPDEST PUSH1 0x40 MLOAD DUP1 SWAP2 SUB SWAP1 RETURN JUMPDEST PUSH2 0x1D1 PUSH1 0x4 DUP1 CALLDATASIZE SUB DUP2 ADD SWAP1 PUSH2 0x1CC SWAP2 SWAP1 PUSH2 0xED6 JUMP JUMPDEST PUSH2 0x43E JUMP JUMPDEST STOP JUMPDEST PUSH2 0x1ED PUSH1 0x4 DUP1 CALLDATASIZE SUB DUP2 ADD SWAP1 PUSH2 0x1E8 SWAP2 SWAP1 PUSH2 0xBF3 JUMP JUMPDEST PUSH2 0x644 JUMP JUMPDEST PUSH1 0x40 MLOAD PUSH2 0x1FA SWAP2 SWAP1 PUSH2 0xC85 JUMP JUMPDEST PUSH1 0x40 MLOAD DUP1 SWAP2 SUB SWAP1 RETURN JUMPDEST PUSH2 0x21D PUSH1 0x4 DUP1 CALLDATASIZE SUB DUP2 ADD SWAP1 PUSH2 0x218 SWAP2 SWAP1 PUSH2 0xBF3 JUMP JUMPDEST PUSH2 0x659 JUMP JUMPDEST PUSH1 0x40 MLOAD PUSH2 0x22A SWAP2 SWAP1 PUSH2 0xC85 JUMP JUMPDEST PUSH1 0x40 MLOAD DUP1 SWAP2 SUB SWAP1 RETURN JUMPDEST PUSH1 0x3 PUSH1 0x20 MSTORE DUP1 PUSH0 MSTORE PUSH1 0x40 PUSH0 KECCAK256 PUSH0 SWAP2 POP SLOAD SWAP1 PUSH2 0x100 EXP SWAP1 DIV PUSH20 0xFFFFFFFFFFFFFFFFFFFFFFFFFFFFFFFFFFFFFFFF AND DUP2 JUMP JUMPDEST PUSH0 DUP1 PUSH2 0x286 CALLER PUSH20 0xFFFFFFFFFFFFFFFFFFFFFFFFFFFFFFFFFFFFFFFF AND PUSH1 0x14 PUSH2 0x6FE JUMP JUMPDEST PUSH2 0x28F DUP5 PUSH2 0x93C JUMP JUMPDEST PUSH1 0x40 MLOAD PUSH1 0x20 ADD PUSH2 0x2A0 SWAP3 SWAP2 SWAP1 PUSH2 0xF4E JUMP JUMPDEST PUSH1 0x40 MLOAD PUSH1 0x20 DUP2 DUP4 SUB SUB DUP2 MSTORE SWAP1 PUSH1 0x40 MSTORE SWAP1 POP PUSH0 PUSH1 0x2 DUP3 PUSH1 0x40 MLOAD PUSH2 0x2C2 SWAP2 SWAP1 PUSH2 0xF71 JUMP JUMPDEST SWAP1 DUP2 MSTORE PUSH1 0x20 ADD PUSH1 0x40 MLOAD DUP1 SWAP2 SUB SWAP1 KECCAK256 PUSH1 0x40 MLOAD DUP1 PUSH1 0x60 ADD PUSH1 0x40 MSTORE SWAP1 DUP2 PUSH0 DUP3 ADD SLOAD DUP2 MSTORE PUSH1 0x20 ADD PUSH1 0x1 DUP3 ADD SLOAD DUP2 MSTORE PUSH1 0x20 ADD PUSH1 0x2 DUP3 ADD SLOAD DUP2 MSTORE POP POP SWAP1 POP DUP1 PUSH1 0x20 ADD MLOAD SWAP3 POP POP POP SWAP2 SWAP1 POP JUMP JUMPDEST PUSH0 DUP1 PUSH1 0x3 PUSH0 DUP5 DUP2 MSTORE PUSH1 0x20 ADD SWAP1 DUP2 MSTORE PUSH1 0x20 ADD PUSH0 KECCAK256 PUSH0 SWAP1 SLOAD SWAP1 PUSH2 0x100 EXP SWAP1 DIV PUSH20 0xFFFFFFFFFFFFFFFFFFFFFFFFFFFFFFFFFFFFFFFF AND SWAP1 POP DUP1 SWAP2 POP POP SWAP2 SWAP1 POP JUMP JUMPDEST PUSH0 DUP1 PUSH1 0x4 PUSH0 DUP5 DUP2 MSTORE PUSH1 0x20 ADD SWAP1 DUP2 MSTORE PUSH1 0x20 ADD PUSH0 KECCAK256 SLOAD SWAP1 POP DUP1 SWAP2 POP POP SWAP2 SWAP1 POP JUMP JUMPDEST PUSH1 0x1 PUSH1 0x20 MSTORE DUP1 PUSH0 MSTORE PUSH1 0x40 PUSH0 KECCAK256 PUSH0 SWAP2 POP SWAP1 POP DUP1 SLOAD PUSH2 0x381 SWAP1 PUSH2 0xFB4 JUMP JUMPDEST DUP1 PUSH1 0x1F ADD PUSH1 0x20 DUP1 SWAP2 DIV MUL PUSH1 0x20 ADD PUSH1 0x40 MLOAD SWAP1 DUP2 ADD PUSH1 0x40 MSTORE DUP1 SWAP3 SWAP2 SWAP1 DUP2 DUP2 MSTORE PUSH1 0x20 ADD DUP3 DUP1 SLOAD PUSH2 0x3AD SWAP1 PUSH2 0xFB4 JUMP JUMPDEST DUP1 ISZERO PUSH2 0x3F8 JUMPI DUP1 PUSH1 0x1F LT PUSH2 0x3CF JUMPI PUSH2 0x100 DUP1 DUP4 SLOAD DIV MUL DUP4 MSTORE SWAP2 PUSH1 0x20 ADD SWAP2 PUSH2 0x3F8 JUMP JUMPDEST DUP3 ADD SWAP2 SWAP1 PUSH0 MSTORE PUSH1 0x20 PUSH0 KECCAK256 SWAP1 JUMPDEST DUP2 SLOAD DUP2 MSTORE SWAP1 PUSH1 0x1 ADD SWAP1 PUSH1 0x20 ADD DUP1 DUP4 GT PUSH2 0x3DB JUMPI DUP3 SWAP1 SUB PUSH1 0x1F AND DUP3 ADD SWAP2 JUMPDEST POP POP POP POP POP DUP2 JUMP JUMPDEST PUSH1 0x2 DUP2 DUP1 MLOAD PUSH1 0x20 DUP2 ADD DUP3 ADD DUP1 MLOAD DUP5 DUP3 MSTORE PUSH1 0x20 DUP4 ADD PUSH1 0x20 DUP6 ADD KECCAK256 DUP2 DUP4 MSTORE DUP1 SWAP6 POP POP POP POP POP POP PUSH0 SWAP2 POP SWAP1 POP DUP1 PUSH0 ADD SLOAD SWAP1 DUP1 PUSH1 0x1 ADD SLOAD SWAP1 DUP1 PUSH1 0x2 ADD SLOAD SWAP1 POP DUP4 JUMP JUMPDEST PUSH1 0x1 DUP2 EQ DUP1 PUSH2 0x44D JUMPI POP PUSH1 0x2 DUP2 EQ JUMPDEST PUSH2 0x48C JUMPI PUSH1 0x40 MLOAD PUSH32 0x8C379A000000000000000000000000000000000000000000000000000000000 DUP2 MSTORE PUSH1 0x4 ADD PUSH2 0x483 SWAP1 PUSH2 0x102E JUMP JUMPDEST PUSH1 0x40 MLOAD DUP1 SWAP2 SUB SWAP1 REVERT JUMPDEST PUSH0 PUSH2 0x4AE CALLER PUSH20 0xFFFFFFFFFFFFFFFFFFFFFFFFFFFFFFFFFFFFFFFF AND PUSH1 0x14 PUSH2 0x6FE JUMP JUMPDEST PUSH2 0x4B7 DUP4 PUSH2 0x93C JUMP JUMPDEST PUSH1 0x40 MLOAD PUSH1 0x20 ADD PUSH2 0x4C8 SWAP3 SWAP2 SWAP1 PUSH2 0xF4E JUMP JUMPDEST PUSH1 0x40 MLOAD PUSH1 0x20 DUP2 DUP4 SUB SUB DUP2 MSTORE SWAP1 PUSH1 0x40 MSTORE SWAP1 POP PUSH0 PUSH1 0x2 DUP3 PUSH1 0x40 MLOAD PUSH2 0x4EA SWAP2 SWAP1 PUSH2 0xF71 JUMP JUMPDEST SWAP1 DUP2 MSTORE PUSH1 0x20 ADD PUSH1 0x40 MLOAD DUP1 SWAP2 SUB SWAP1 KECCAK256 SWAP1 POP DUP4 DUP2 PUSH1 0x1 ADD SLOAD LT ISZERO PUSH2 0x63E JUMPI PUSH0 PUSH1 0x1 PUSH0 SLOAD PUSH2 0x515 SWAP2 SWAP1 PUSH2 0x1079 JUMP JUMPDEST SWAP1 POP PUSH0 DUP3 PUSH0 ADD SLOAD SWAP1 POP PUSH0 PUSH1 0x40 MLOAD DUP1 PUSH1 0x60 ADD PUSH1 0x40 MSTORE DUP1 DUP5 DUP2 MSTORE PUSH1 0x20 ADD DUP9 DUP2 MSTORE PUSH1 0x20 ADD TIMESTAMP DUP2 MSTORE POP SWAP1 POP DUP1 PUSH1 0x2 DUP7 PUSH1 0x40 MLOAD PUSH2 0x54D SWAP2 SWAP1 PUSH2 0xF71 JUMP JUMPDEST SWAP1 DUP2 MSTORE PUSH1 0x20 ADD PUSH1 0x40 MLOAD DUP1 SWAP2 SUB SWAP1 KECCAK256 PUSH0 DUP3 ADD MLOAD DUP2 PUSH0 ADD SSTORE PUSH1 0x20 DUP3 ADD MLOAD DUP2 PUSH1 0x1 ADD SSTORE PUSH1 0x40 DUP3 ADD MLOAD DUP2 PUSH1 0x2 ADD SSTORE SWAP1 POP POP DUP5 PUSH1 0x1 PUSH0 DUP6 DUP2 MSTORE PUSH1 0x20 ADD SWAP1 DUP2 MSTORE PUSH1 0x20 ADD PUSH0 KECCAK256 SWAP1 DUP2 PUSH2 0x598 SWAP2 SWAP1 PUSH2 0x1249 JUMP JUMPDEST POP PUSH1 0x1 PUSH0 DUP4 DUP2 MSTORE PUSH1 0x20 ADD SWAP1 DUP2 MSTORE PUSH1 0x20 ADD PUSH0 KECCAK256 PUSH0 PUSH2 0x5B5 SWAP2 SWAP1 PUSH2 0xB57 JUMP JUMPDEST DUP3 PUSH0 DUP2 SWAP1 SSTORE POP DUP7 PUSH1 0x4 PUSH0 DUP9 DUP2 MSTORE PUSH1 0x20 ADD SWAP1 DUP2 MSTORE PUSH1 0x20 ADD PUSH0 KECCAK256 SLOAD LT ISZERO PUSH2 0x63A JUMPI DUP7 PUSH1 0x4 PUSH0 DUP9 DUP2 MSTORE PUSH1 0x20 ADD SWAP1 DUP2 MSTORE PUSH1 0x20 ADD PUSH0 KECCAK256 DUP2 SWAP1 SSTORE POP CALLER PUSH1 0x3 PUSH0 DUP9 DUP2 MSTORE PUSH1 0x20 ADD SWAP1 DUP2 MSTORE PUSH1 0x20 ADD PUSH0 KECCAK256 PUSH0 PUSH2 0x100 EXP DUP2 SLOAD DUP2 PUSH20 0xFFFFFFFFFFFFFFFFFFFFFFFFFFFFFFFFFFFFFFFF MUL NOT AND SWAP1 DUP4 PUSH20 0xFFFFFFFFFFFFFFFFFFFFFFFFFFFFFFFFFFFFFFFF AND MUL OR SWAP1 SSTORE POP JUMPDEST POP POP POP JUMPDEST POP POP POP POP JUMP JUMPDEST PUSH1 0x4 PUSH1 0x20 MSTORE DUP1 PUSH0 MSTORE PUSH1 0x40 PUSH0 KECCAK256 PUSH0 SWAP2 POP SWAP1 POP SLOAD DUP2 JUMP JUMPDEST PUSH0 DUP1 PUSH2 0x67C CALLER PUSH20 0xFFFFFFFFFFFFFFFFFFFFFFFFFFFFFFFFFFFFFFFF AND PUSH1 0x14 PUSH2 0x6FE JUMP JUMPDEST PUSH2 0x685 DUP5 PUSH2 0x93C JUMP JUMPDEST PUSH1 0x40 MLOAD PUSH1 0x20 ADD PUSH2 0x696 SWAP3 SWAP2 SWAP1 PUSH2 0xF4E JUMP JUMPDEST PUSH1 0x40 MLOAD PUSH1 0x20 DUP2 DUP4 SUB SUB DUP2 MSTORE SWAP1 PUSH1 0x40 MSTORE SWAP1 POP PUSH0 PUSH1 0x2 DUP3 PUSH1 0x40 MLOAD PUSH2 0x6B8 SWAP2 SWAP1 PUSH2 0xF71 JUMP JUMPDEST SWAP1 DUP2 MSTORE PUSH1 0x20 ADD PUSH1 0x40 MLOAD DUP1 SWAP2 SUB SWAP1 KECCAK256 PUSH1 0x40 MLOAD DUP1 PUSH1 0x60 ADD PUSH1 0x40 MSTORE SWAP1 DUP2 PUSH0 DUP3 ADD SLOAD DUP2 MSTORE PUSH1 0x20 ADD PUSH1 0x1 DUP3 ADD SLOAD DUP2 MSTORE PUSH1 0x20 ADD PUSH1 0x2 DUP3 ADD SLOAD DUP2 MSTORE POP POP SWAP1 POP DUP1 PUSH1 0x40 ADD MLOAD SWAP3 POP POP POP SWAP2 SWAP1 POP JUMP JUMPDEST PUSH1 0x60 PUSH0 DUP4 SWAP1 POP PUSH0 PUSH1 0x2 DUP5 PUSH1 0x2 PUSH2 0x714 SWAP2 SWAP1 PUSH2 0x1318 JUMP JUMPDEST PUSH2 0x71E SWAP2 SWAP1 PUSH2 0x1079 JUMP JUMPDEST PUSH8 0xFFFFFFFFFFFFFFFF DUP2 GT ISZERO PUSH2 0x737 JUMPI PUSH2 0x736 PUSH2 0xD36 JUMP JUMPDEST JUMPDEST PUSH1 0x40 MLOAD SWAP1 DUP1 DUP3 MSTORE DUP1 PUSH1 0x1F ADD PUSH1 0x1F NOT AND PUSH1 0x20 ADD DUP3 ADD PUSH1 0x40 MSTORE DUP1 ISZERO PUSH2 0x769 JUMPI DUP2 PUSH1 0x20 ADD PUSH1 0x1 DUP3 MUL DUP1 CALLDATASIZE DUP4 CALLDATACOPY DUP1 DUP3 ADD SWAP2 POP POP SWAP1 POP JUMPDEST POP SWAP1 POP PUSH32 0x3000000000000000000000000000000000000000000000000000000000000000 DUP2 PUSH0 DUP2 MLOAD DUP2 LT PUSH2 0x7A0 JUMPI PUSH2 0x79F PUSH2 0x1359 JUMP JUMPDEST JUMPDEST PUSH1 0x20 ADD ADD SWAP1 PUSH31 0xFFFFFFFFFFFFFFFFFFFFFFFFFFFFFFFFFFFFFFFFFFFFFFFFFFFFFFFFFFFFFF NOT AND SWAP1 DUP2 PUSH0 BYTE SWAP1 MSTORE8 POP PUSH32 0x7800000000000000000000000000000000000000000000000000000000000000 DUP2 PUSH1 0x1 DUP2 MLOAD DUP2 LT PUSH2 0x803 JUMPI PUSH2 0x802 PUSH2 0x1359 JUMP JUMPDEST JUMPDEST PUSH1 0x20 ADD ADD SWAP1 PUSH31 0xFFFFFFFFFFFFFFFFFFFFFFFFFFFFFFFFFFFFFFFFFFFFFFFFFFFFFFFFFFFFFF NOT AND SWAP1 DUP2 PUSH0 BYTE SWAP1 MSTORE8 POP PUSH0 PUSH1 0x1 DUP6 PUSH1 0x2 PUSH2 0x841 SWAP2 SWAP1 PUSH2 0x1318 JUMP JUMPDEST PUSH2 0x84B SWAP2 SWAP1 PUSH2 0x1079 JUMP JUMPDEST SWAP1 POP JUMPDEST PUSH1 0x1 DUP2 GT ISZERO PUSH2 0x8EA JUMPI PUSH32 0x3031323334353637383961626364656600000000000000000000000000000000 PUSH1 0xF DUP5 AND PUSH1 0x10 DUP2 LT PUSH2 0x88D JUMPI PUSH2 0x88C PUSH2 0x1359 JUMP JUMPDEST JUMPDEST BYTE PUSH1 0xF8 SHL DUP3 DUP3 DUP2 MLOAD DUP2 LT PUSH2 0x8A4 JUMPI PUSH2 0x8A3 PUSH2 0x1359 JUMP JUMPDEST JUMPDEST PUSH1 0x20 ADD ADD SWAP1 PUSH31 0xFFFFFFFFFFFFFFFFFFFFFFFFFFFFFFFFFFFFFFFFFFFFFFFFFFFFFFFFFFFFFF NOT AND SWAP1 DUP2 PUSH0 BYTE SWAP1 MSTORE8 POP PUSH1 0x4 DUP4 SWAP1 SHR SWAP3 POP DUP1 PUSH2 0x8E3 SWAP1 PUSH2 0x1386 JUMP JUMPDEST SWAP1 POP PUSH2 0x84E JUMP JUMPDEST POP PUSH0 DUP3 EQ PUSH2 0x931 JUMPI DUP5 DUP5 PUSH1 0x40 MLOAD PUSH32 0xE22E27EB00000000000000000000000000000000000000000000000000000000 DUP2 MSTORE PUSH1 0x4 ADD PUSH2 0x928 SWAP3 SWAP2 SWAP1 PUSH2 0x13AD JUMP JUMPDEST PUSH1 0x40 MLOAD DUP1 SWAP2 SUB SWAP1 REVERT JUMPDEST DUP1 SWAP3 POP POP POP SWAP3 SWAP2 POP POP JUMP JUMPDEST PUSH1 0x60 PUSH0 PUSH1 0x1 PUSH2 0x94A DUP5 PUSH2 0xA06 JUMP JUMPDEST ADD SWAP1 POP PUSH0 DUP2 PUSH8 0xFFFFFFFFFFFFFFFF DUP2 GT ISZERO PUSH2 0x968 JUMPI PUSH2 0x967 PUSH2 0xD36 JUMP JUMPDEST JUMPDEST PUSH1 0x40 MLOAD SWAP1 DUP1 DUP3 MSTORE DUP1 PUSH1 0x1F ADD PUSH1 0x1F NOT AND PUSH1 0x20 ADD DUP3 ADD PUSH1 0x40 MSTORE DUP1 ISZERO PUSH2 0x99A JUMPI DUP2 PUSH1 0x20 ADD PUSH1 0x1 DUP3 MUL DUP1 CALLDATASIZE DUP4 CALLDATACOPY DUP1 DUP3 ADD SWAP2 POP POP SWAP1 POP JUMPDEST POP SWAP1 POP PUSH0 DUP3 PUSH1 0x20 ADD DUP3 ADD SWAP1 POP JUMPDEST PUSH1 0x1 ISZERO PUSH2 0x9FB JUMPI DUP1 DUP1 PUSH1 0x1 SWAP1 SUB SWAP2 POP POP PUSH32 0x3031323334353637383961626364656600000000000000000000000000000000 PUSH1 0xA DUP7 MOD BYTE DUP2 MSTORE8 PUSH1 0xA DUP6 DUP2 PUSH2 0x9F0 JUMPI PUSH2 0x9EF PUSH2 0x13D4 JUMP JUMPDEST JUMPDEST DIV SWAP5 POP PUSH0 DUP6 SUB PUSH2 0x9A7 JUMPI JUMPDEST DUP2 SWAP4 POP POP POP POP SWAP2 SWAP1 POP JUMP JUMPDEST PUSH0 DUP1 PUSH0 SWAP1 POP PUSH27 0x184F03E93FF9F4DAA797ED6E38ED64BF6A1F010000000000000000 DUP4 LT PUSH2 0xA62 JUMPI PUSH27 0x184F03E93FF9F4DAA797ED6E38ED64BF6A1F010000000000000000 DUP4 DUP2 PUSH2 0xA58 JUMPI PUSH2 0xA57 PUSH2 0x13D4 JUMP JUMPDEST JUMPDEST DIV SWAP3 POP PUSH1 0x40 DUP2 ADD SWAP1 POP JUMPDEST PUSH14 0x4EE2D6D415B85ACEF8100000000 DUP4 LT PUSH2 0xA9F JUMPI PUSH14 0x4EE2D6D415B85ACEF8100000000 DUP4 DUP2 PUSH2 0xA95 JUMPI PUSH2 0xA94 PUSH2 0x13D4 JUMP JUMPDEST JUMPDEST DIV SWAP3 POP PUSH1 0x20 DUP2 ADD SWAP1 POP JUMPDEST PUSH7 0x2386F26FC10000 DUP4 LT PUSH2 0xACE JUMPI PUSH7 0x2386F26FC10000 DUP4 DUP2 PUSH2 0xAC4 JUMPI PUSH2 0xAC3 PUSH2 0x13D4 JUMP JUMPDEST JUMPDEST DIV SWAP3 POP PUSH1 0x10 DUP2 ADD SWAP1 POP JUMPDEST PUSH4 0x5F5E100 DUP4 LT PUSH2 0xAF7 JUMPI PUSH4 0x5F5E100 DUP4 DUP2 PUSH2 0xAED JUMPI PUSH2 0xAEC PUSH2 0x13D4 JUMP JUMPDEST JUMPDEST DIV SWAP3 POP PUSH1 0x8 DUP2 ADD SWAP1 POP JUMPDEST PUSH2 0x2710 DUP4 LT PUSH2 0xB1C JUMPI PUSH2 0x2710 DUP4 DUP2 PUSH2 0xB12 JUMPI PUSH2 0xB11 PUSH2 0x13D4 JUMP JUMPDEST JUMPDEST DIV SWAP3 POP PUSH1 0x4 DUP2 ADD SWAP1 POP JUMPDEST PUSH1 0x64 DUP4 LT PUSH2 0xB3F JUMPI PUSH1 0x64 DUP4 DUP2 PUSH2 0xB35 JUMPI PUSH2 0xB34 PUSH2 0x13D4 JUMP JUMPDEST JUMPDEST DIV SWAP3 POP PUSH1 0x2 DUP2 ADD SWAP1 POP JUMPDEST PUSH1 0xA DUP4 LT PUSH2 0xB4E JUMPI PUSH1 0x1 DUP2 ADD SWAP1 POP JUMPDEST DUP1 SWAP2 POP POP SWAP2 SWAP1 POP JUMP JUMPDEST POP DUP1 SLOAD PUSH2 0xB63 SWAP1 PUSH2 0xFB4 JUMP JUMPDEST PUSH0 DUP3 SSTORE DUP1 PUSH1 0x1F LT PUSH2 0xB74 JUMPI POP PUSH2 0xB91 JUMP JUMPDEST PUSH1 0x1F ADD PUSH1 0x20 SWAP1 DIV SWAP1 PUSH0 MSTORE PUSH1 0x20 PUSH0 KECCAK256 SWAP1 DUP2 ADD SWAP1 PUSH2 0xB90 SWAP2 SWAP1 PUSH2 0xB94 JUMP JUMPDEST JUMPDEST POP JUMP JUMPDEST JUMPDEST DUP1 DUP3 GT ISZERO PUSH2 0xBAB JUMPI PUSH0 DUP2 PUSH0 SWAP1 SSTORE POP PUSH1 0x1 ADD PUSH2 0xB95 JUMP JUMPDEST POP SWAP1 JUMP JUMPDEST PUSH0 PUSH1 0x40 MLOAD SWAP1 POP SWAP1 JUMP JUMPDEST PUSH0 DUP1 REVERT JUMPDEST PUSH0 DUP1 REVERT JUMPDEST PUSH0 DUP2 SWAP1 POP SWAP2 SWAP1 POP JUMP JUMPDEST PUSH2 0xBD2 DUP2 PUSH2 0xBC0 JUMP JUMPDEST DUP2 EQ PUSH2 0xBDC JUMPI PUSH0 DUP1 REVERT JUMPDEST POP JUMP JUMPDEST PUSH0 DUP2 CALLDATALOAD SWAP1 POP PUSH2 0xBED DUP2 PUSH2 0xBC9 JUMP JUMPDEST SWAP3 SWAP2 POP POP JUMP JUMPDEST PUSH0 PUSH1 0x20 DUP3 DUP5 SUB SLT ISZERO PUSH2 0xC08 JUMPI PUSH2 0xC07 PUSH2 0xBB8 JUMP JUMPDEST JUMPDEST PUSH0 PUSH2 0xC15 DUP5 DUP3 DUP6 ADD PUSH2 0xBDF JUMP JUMPDEST SWAP2 POP POP SWAP3 SWAP2 POP POP JUMP JUMPDEST PUSH0 PUSH20 0xFFFFFFFFFFFFFFFFFFFFFFFFFFFFFFFFFFFFFFFF DUP3 AND SWAP1 POP SWAP2 SWAP1 POP JUMP JUMPDEST PUSH0 PUSH2 0xC47 DUP3 PUSH2 0xC1E JUMP JUMPDEST SWAP1 POP SWAP2 SWAP1 POP JUMP JUMPDEST PUSH2 0xC57 DUP2 PUSH2 0xC3D JUMP JUMPDEST DUP3 MSTORE POP POP JUMP JUMPDEST PUSH0 PUSH1 0x20 DUP3 ADD SWAP1 POP PUSH2 0xC70 PUSH0 DUP4 ADD DUP5 PUSH2 0xC4E JUMP JUMPDEST SWAP3 SWAP2 POP POP JUMP JUMPDEST PUSH2 0xC7F DUP2 PUSH2 0xBC0 JUMP JUMPDEST DUP3 MSTORE POP POP JUMP JUMPDEST PUSH0 PUSH1 0x20 DUP3 ADD SWAP1 POP PUSH2 0xC98 PUSH0 DUP4 ADD DUP5 PUSH2 0xC76 JUMP JUMPDEST SWAP3 SWAP2 POP POP JUMP JUMPDEST PUSH0 DUP2 MLOAD SWAP1 POP SWAP2 SWAP1 POP JUMP JUMPDEST PUSH0 DUP3 DUP3 MSTORE PUSH1 0x20 DUP3 ADD SWAP1 POP SWAP3 SWAP2 POP POP JUMP JUMPDEST DUP3 DUP2 DUP4 MCOPY PUSH0 DUP4 DUP4 ADD MSTORE POP POP POP JUMP JUMPDEST PUSH0 PUSH1 0x1F NOT PUSH1 0x1F DUP4 ADD AND SWAP1 POP SWAP2 SWAP1 POP JUMP JUMPDEST PUSH0 PUSH2 0xCE0 DUP3 PUSH2 0xC9E JUMP JUMPDEST PUSH2 0xCEA DUP2 DUP6 PUSH2 0xCA8 JUMP JUMPDEST SWAP4 POP PUSH2 0xCFA DUP2 DUP6 PUSH1 0x20 DUP7 ADD PUSH2 0xCB8 JUMP JUMPDEST PUSH2 0xD03 DUP2 PUSH2 0xCC6 JUMP JUMPDEST DUP5 ADD SWAP2 POP POP SWAP3 SWAP2 POP POP JUMP JUMPDEST PUSH0 PUSH1 0x20 DUP3 ADD SWAP1 POP DUP2 DUP2 SUB PUSH0 DUP4 ADD MSTORE PUSH2 0xD26 DUP2 DUP5 PUSH2 0xCD6 JUMP JUMPDEST SWAP1 POP SWAP3 SWAP2 POP POP JUMP JUMPDEST PUSH0 DUP1 REVERT JUMPDEST PUSH0 DUP1 REVERT JUMPDEST PUSH32 0x4E487B7100000000000000000000000000000000000000000000000000000000 PUSH0 MSTORE PUSH1 0x41 PUSH1 0x4 MSTORE PUSH1 0x24 PUSH0 REVERT JUMPDEST PUSH2 0xD6C DUP3 PUSH2 0xCC6 JUMP JUMPDEST DUP2 ADD DUP2 DUP2 LT PUSH8 0xFFFFFFFFFFFFFFFF DUP3 GT OR ISZERO PUSH2 0xD8B JUMPI PUSH2 0xD8A PUSH2 0xD36 JUMP JUMPDEST JUMPDEST DUP1 PUSH1 0x40 MSTORE POP POP POP JUMP JUMPDEST PUSH0 PUSH2 0xD9D PUSH2 0xBAF JUMP JUMPDEST SWAP1 POP PUSH2 0xDA9 DUP3 DUP3 PUSH2 0xD63 JUMP JUMPDEST SWAP2 SWAP1 POP JUMP JUMPDEST PUSH0 PUSH8 0xFFFFFFFFFFFFFFFF DUP3 GT ISZERO PUSH2 0xDC8 JUMPI PUSH2 0xDC7 PUSH2 0xD36 JUMP JUMPDEST JUMPDEST PUSH2 0xDD1 DUP3 PUSH2 0xCC6 JUMP JUMPDEST SWAP1 POP PUSH1 0x20 DUP2 ADD SWAP1 POP SWAP2 SWAP1 POP JUMP JUMPDEST DUP3 DUP2 DUP4 CALLDATACOPY PUSH0 DUP4 DUP4 ADD MSTORE POP POP POP JUMP JUMPDEST PUSH0 PUSH2 0xDFE PUSH2 0xDF9 DUP5 PUSH2 0xDAE JUMP JUMPDEST PUSH2 0xD94 JUMP JUMPDEST SWAP1 POP DUP3 DUP2 MSTORE PUSH1 0x20 DUP2 ADD DUP5 DUP5 DUP5 ADD GT ISZERO PUSH2 0xE1A JUMPI PUSH2 0xE19 PUSH2 0xD32 JUMP JUMPDEST JUMPDEST PUSH2 0xE25 DUP5 DUP3 DUP6 PUSH2 0xDDE JUMP JUMPDEST POP SWAP4 SWAP3 POP POP POP JUMP JUMPDEST PUSH0 DUP3 PUSH1 0x1F DUP4 ADD SLT PUSH2 0xE41 JUMPI PUSH2 0xE40 PUSH2 0xD2E JUMP JUMPDEST JUMPDEST DUP2 CALLDATALOAD PUSH2 0xE51 DUP5 DUP3 PUSH1 0x20 DUP7 ADD PUSH2 0xDEC JUMP JUMPDEST SWAP2 POP POP SWAP3 SWAP2 POP POP JUMP JUMPDEST PUSH0 PUSH1 0x20 DUP3 DUP5 SUB SLT ISZERO PUSH2 0xE6F JUMPI PUSH2 0xE6E PUSH2 0xBB8 JUMP JUMPDEST JUMPDEST PUSH0 DUP3 ADD CALLDATALOAD PUSH8 0xFFFFFFFFFFFFFFFF DUP2 GT ISZERO PUSH2 0xE8C JUMPI PUSH2 0xE8B PUSH2 0xBBC JUMP JUMPDEST JUMPDEST PUSH2 0xE98 DUP5 DUP3 DUP6 ADD PUSH2 0xE2D JUMP JUMPDEST SWAP2 POP POP SWAP3 SWAP2 POP POP JUMP JUMPDEST PUSH0 PUSH1 0x60 DUP3 ADD SWAP1 POP PUSH2 0xEB4 PUSH0 DUP4 ADD DUP7 PUSH2 0xC76 JUMP JUMPDEST PUSH2 0xEC1 PUSH1 0x20 DUP4 ADD DUP6 PUSH2 0xC76 JUMP JUMPDEST PUSH2 0xECE PUSH1 0x40 DUP4 ADD DUP5 PUSH2 0xC76 JUMP JUMPDEST SWAP5 SWAP4 POP POP POP POP JUMP JUMPDEST PUSH0 DUP1 PUSH1 0x40 DUP4 DUP6 SUB SLT ISZERO PUSH2 0xEEC JUMPI PUSH2 0xEEB PUSH2 0xBB8 JUMP JUMPDEST JUMPDEST PUSH0 PUSH2 0xEF9 DUP6 DUP3 DUP7 ADD PUSH2 0xBDF JUMP JUMPDEST SWAP3 POP POP PUSH1 0x20 PUSH2 0xF0A DUP6 DUP3 DUP7 ADD PUSH2 0xBDF JUMP JUMPDEST SWAP2 POP POP SWAP3 POP SWAP3 SWAP1 POP JUMP JUMPDEST PUSH0 DUP2 SWAP1 POP SWAP3 SWAP2 POP POP JUMP JUMPDEST PUSH0 PUSH2 0xF28 DUP3 PUSH2 0xC9E JUMP JUMPDEST PUSH2 0xF32 DUP2 DUP6 PUSH2 0xF14 JUMP JUMPDEST SWAP4 POP PUSH2 0xF42 DUP2 DUP6 PUSH1 0x20 DUP7 ADD PUSH2 0xCB8 JUMP JUMPDEST DUP1 DUP5 ADD SWAP2 POP POP SWAP3 SWAP2 POP POP JUMP JUMPDEST PUSH0 PUSH2 0xF59 DUP3 DUP6 PUSH2 0xF1E JUMP JUMPDEST SWAP2 POP PUSH2 0xF65 DUP3 DUP5 PUSH2 0xF1E JUMP JUMPDEST SWAP2 POP DUP2 SWAP1 POP SWAP4 SWAP3 POP POP POP JUMP JUMPDEST PUSH0 PUSH2 0xF7C DUP3 DUP5 PUSH2 0xF1E JUMP JUMPDEST SWAP2 POP DUP2 SWAP1 POP SWAP3 SWAP2 POP POP JUMP JUMPDEST PUSH32 0x4E487B7100000000000000000000000000000000000000000000000000000000 PUSH0 MSTORE PUSH1 0x22 PUSH1 0x4 MSTORE PUSH1 0x24 PUSH0 REVERT JUMPDEST PUSH0 PUSH1 0x2 DUP3 DIV SWAP1 POP PUSH1 0x1 DUP3 AND DUP1 PUSH2 0xFCB JUMPI PUSH1 0x7F DUP3 AND SWAP2 POP JUMPDEST PUSH1 0x20 DUP3 LT DUP2 SUB PUSH2 0xFDE JUMPI PUSH2 0xFDD PUSH2 0xF87 JUMP JUMPDEST JUMPDEST POP SWAP2 SWAP1 POP JUMP JUMPDEST PUSH32 0x67616D652069642069732031206F722032206F6E6C7900000000000000000000 PUSH0 DUP3 ADD MSTORE POP JUMP JUMPDEST PUSH0 PUSH2 0x1018 PUSH1 0x16 DUP4 PUSH2 0xCA8 JUMP JUMPDEST SWAP2 POP PUSH2 0x1023 DUP3 PUSH2 0xFE4 JUMP JUMPDEST PUSH1 0x20 DUP3 ADD SWAP1 POP SWAP2 SWAP1 POP JUMP JUMPDEST PUSH0 PUSH1 0x20 DUP3 ADD SWAP1 POP DUP2 DUP2 SUB PUSH0 DUP4 ADD MSTORE PUSH2 0x1045 DUP2 PUSH2 0x100C JUMP JUMPDEST SWAP1 POP SWAP2 SWAP1 POP JUMP JUMPDEST PUSH32 0x4E487B7100000000000000000000000000000000000000000000000000000000 PUSH0 MSTORE PUSH1 0x11 PUSH1 0x4 MSTORE PUSH1 0x24 PUSH0 REVERT JUMPDEST PUSH0 PUSH2 0x1083 DUP3 PUSH2 0xBC0 JUMP JUMPDEST SWAP2 POP PUSH2 0x108E DUP4 PUSH2 0xBC0 JUMP JUMPDEST SWAP3 POP DUP3 DUP3 ADD SWAP1 POP DUP1 DUP3 GT ISZERO PUSH2 0x10A6 JUMPI PUSH2 0x10A5 PUSH2 0x104C JUMP JUMPDEST JUMPDEST SWAP3 SWAP2 POP POP JUMP JUMPDEST PUSH0 DUP2 SWAP1 POP DUP2 PUSH0 MSTORE PUSH1 0x20 PUSH0 KECCAK256 SWAP1 POP SWAP2 SWAP1 POP JUMP JUMPDEST PUSH0 PUSH1 0x20 PUSH1 0x1F DUP4 ADD DIV SWAP1 POP SWAP2 SWAP1 POP JUMP JUMPDEST PUSH0 DUP3 DUP3 SHL SWAP1 POP SWAP3 SWAP2 POP POP JUMP JUMPDEST PUSH0 PUSH1 0x8 DUP4 MUL PUSH2 0x1108 PUSH32 0xFFFFFFFFFFFFFFFFFFFFFFFFFFFFFFFFFFFFFFFFFFFFFFFFFFFFFFFFFFFFFFFF DUP3 PUSH2 0x10CD JUMP JUMPDEST PUSH2 0x1112 DUP7 DUP4 PUSH2 0x10CD JUMP JUMPDEST SWAP6 POP DUP1 NOT DUP5 AND SWAP4 POP DUP1 DUP7 AND DUP5 OR SWAP3 POP POP POP SWAP4 SWAP3 POP POP POP JUMP JUMPDEST PUSH0 DUP2 SWAP1 POP SWAP2 SWAP1 POP JUMP JUMPDEST PUSH0 PUSH2 0x114D PUSH2 0x1148 PUSH2 0x1143 DUP5 PUSH2 0xBC0 JUMP JUMPDEST PUSH2 0x112A JUMP JUMPDEST PUSH2 0xBC0 JUMP JUMPDEST SWAP1 POP SWAP2 SWAP1 POP JUMP JUMPDEST PUSH0 DUP2 SWAP1 POP SWAP2 SWAP1 POP JUMP JUMPDEST PUSH2 0x1166 DUP4 PUSH2 0x1133 JUMP JUMPDEST PUSH2 0x117A PUSH2 0x1172 DUP3 PUSH2 0x1154 JUMP JUMPDEST DUP5 DUP5 SLOAD PUSH2 0x10D9 JUMP JUMPDEST DUP3 SSTORE POP POP POP POP JUMP JUMPDEST PUSH0 SWAP1 JUMP JUMPDEST PUSH2 0x118E PUSH2 0x1182 JUMP JUMPDEST PUSH2 0x1199 DUP2 DUP5 DUP5 PUSH2 0x115D JUMP JUMPDEST POP POP POP JUMP JUMPDEST JUMPDEST DUP2 DUP2 LT ISZERO PUSH2 0x11BC JUMPI PUSH2 0x11B1 PUSH0 DUP3 PUSH2 0x1186 JUMP JUMPDEST PUSH1 0x1 DUP2 ADD SWAP1 POP PUSH2 0x119F JUMP JUMPDEST POP POP JUMP JUMPDEST PUSH1 0x1F DUP3 GT ISZERO PUSH2 0x1201 JUMPI PUSH2 0x11D2 DUP2 PUSH2 0x10AC JUMP JUMPDEST PUSH2 0x11DB DUP5 PUSH2 0x10BE JUMP JUMPDEST DUP2 ADD PUSH1 0x20 DUP6 LT ISZERO PUSH2 0x11EA JUMPI DUP2 SWAP1 POP JUMPDEST PUSH2 0x11FE PUSH2 0x11F6 DUP6 PUSH2 0x10BE JUMP JUMPDEST DUP4 ADD DUP3 PUSH2 0x119E JUMP JUMPDEST POP POP JUMPDEST POP POP POP JUMP JUMPDEST PUSH0 DUP3 DUP3 SHR SWAP1 POP SWAP3 SWAP2 POP POP JUMP JUMPDEST PUSH0 PUSH2 0x1221 PUSH0 NOT DUP5 PUSH1 0x8 MUL PUSH2 0x1206 JUMP JUMPDEST NOT DUP1 DUP4 AND SWAP2 POP POP SWAP3 SWAP2 POP POP JUMP JUMPDEST PUSH0 PUSH2 0x1239 DUP4 DUP4 PUSH2 0x1212 JUMP JUMPDEST SWAP2 POP DUP3 PUSH1 0x2 MUL DUP3 OR SWAP1 POP SWAP3 SWAP2 POP POP JUMP JUMPDEST PUSH2 0x1252 DUP3 PUSH2 0xC9E JUMP JUMPDEST PUSH8 0xFFFFFFFFFFFFFFFF DUP2 GT ISZERO PUSH2 0x126B JUMPI PUSH2 0x126A PUSH2 0xD36 JUMP JUMPDEST JUMPDEST PUSH2 0x1275 DUP3 SLOAD PUSH2 0xFB4 JUMP JUMPDEST PUSH2 0x1280 DUP3 DUP3 DUP6 PUSH2 0x11C0 JUMP JUMPDEST PUSH0 PUSH1 0x20 SWAP1 POP PUSH1 0x1F DUP4 GT PUSH1 0x1 DUP2 EQ PUSH2 0x12B1 JUMPI PUSH0 DUP5 ISZERO PUSH2 0x129F JUMPI DUP3 DUP8 ADD MLOAD SWAP1 POP JUMPDEST PUSH2 0x12A9 DUP6 DUP3 PUSH2 0x122E JUMP JUMPDEST DUP7 SSTORE POP PUSH2 0x1310 JUMP JUMPDEST PUSH1 0x1F NOT DUP5 AND PUSH2 0x12BF DUP7 PUSH2 0x10AC JUMP JUMPDEST PUSH0 JUMPDEST DUP3 DUP2 LT ISZERO PUSH2 0x12E6 JUMPI DUP5 DUP10 ADD MLOAD DUP3 SSTORE PUSH1 0x1 DUP3 ADD SWAP2 POP PUSH1 0x20 DUP6 ADD SWAP5 POP PUSH1 0x20 DUP2 ADD SWAP1 POP PUSH2 0x12C1 JUMP JUMPDEST DUP7 DUP4 LT ISZERO PUSH2 0x1303 JUMPI DUP5 DUP10 ADD MLOAD PUSH2 0x12FF PUSH1 0x1F DUP10 AND DUP3 PUSH2 0x1212 JUMP JUMPDEST DUP4 SSTORE POP JUMPDEST PUSH1 0x1 PUSH1 0x2 DUP9 MUL ADD DUP9 SSTORE POP POP POP JUMPDEST POP POP POP POP POP POP JUMP JUMPDEST PUSH0 PUSH2 0x1322 DUP3 PUSH2 0xBC0 JUMP JUMPDEST SWAP2 POP PUSH2 0x132D DUP4 PUSH2 0xBC0 JUMP JUMPDEST SWAP3 POP DUP3 DUP3 MUL PUSH2 0x133B DUP2 PUSH2 0xBC0 JUMP JUMPDEST SWAP2 POP DUP3 DUP3 DIV DUP5 EQ DUP4 ISZERO OR PUSH2 0x1352 JUMPI PUSH2 0x1351 PUSH2 0x104C JUMP JUMPDEST JUMPDEST POP SWAP3 SWAP2 POP POP JUMP JUMPDEST PUSH32 0x4E487B7100000000000000000000000000000000000000000000000000000000 PUSH0 MSTORE PUSH1 0x32 PUSH1 0x4 MSTORE PUSH1 0x24 PUSH0 REVERT JUMPDEST PUSH0 PUSH2 0x1390 DUP3 PUSH2 0xBC0 JUMP JUMPDEST SWAP2 POP PUSH0 DUP3 SUB PUSH2 0x13A2 JUMPI PUSH2 0x13A1 PUSH2 0x104C JUMP JUMPDEST JUMPDEST PUSH1 0x1 DUP3 SUB SWAP1 POP SWAP2 SWAP1 POP JUMP JUMPDEST PUSH0 PUSH1 0x40 DUP3 ADD SWAP1 POP PUSH2 0x13C0 PUSH0 DUP4 ADD DUP6 PUSH2 0xC76 JUMP JUMPDEST PUSH2 0x13CD PUSH1 0x20 DUP4 ADD DUP5 PUSH2 0xC76 JUMP JUMPDEST SWAP4 SWAP3 POP POP POP JUMP JUMPDEST PUSH32 0x4E487B7100000000000000000000000000000000000000000000000000000000 PUSH0 MSTORE PUSH1 0x12 PUSH1 0x4 MSTORE PUSH1 0x24 PUSH0 REVERT INVALID LOG2 PUSH5 0x6970667358 0x22 SLT KECCAK256 0xDA 0xB5 CODECOPY 0x4F LOG0 0xCC BASEFEE 0xEE CREATE PUSH25 0xFD6DE574C69CF0A1E93DAEB4D723DB2E59E7DD464BCB64736F PUSH13 0x634300081A0033000000000000 "
		},
		"gasEstimates": {
			"creation": {
				"codeDepositCost": "1035000",
				"executionCost": "6077",
				"totalCost": "1041077"
			},
			"external": {
				"best(uint256)": "2828",
				"bestscores(uint256)": "infinite",
				"entries(uint256)": "infinite",
				"fetch_best(uint256)": "2910",
				"fetch_bestscore(uint256)": "infinite",
				"fetch_myscore(uint256)": "infinite",
				"fetch_mytime(uint256)": "infinite",
				"register(uint256,uint256)": "infinite",
				"scores(string)": "infinite"
			}
		},
		"methodIdentifiers": {
			"best(uint256)": "2d8e4b5f",
			"bestscores(uint256)": "e8281712",
			"entries(uint256)": "b30906d4",
			"fetch_best(uint256)": "59abede1",
			"fetch_bestscore(uint256)": "7c7e723f",
			"fetch_myscore(uint256)": "53c0c8a6",
			"fetch_mytime(uint256)": "ef6c5b1e",
			"register(uint256,uint256)": "d66d6c10",
			"scores(string)": "cd8e6543"
		}
	},
	"abi": [
		{
			"inputs": [
				{
					"internalType": "uint256",
					"name": "value",
					"type": "uint256"
				},
				{
					"internalType": "uint256",
					"name": "length",
					"type": "uint256"
				}
			],
			"name": "StringsInsufficientHexLength",
			"type": "error"
		},
		{
			"inputs": [
				{
					"internalType": "uint256",
					"name": "",
					"type": "uint256"
				}
			],
			"name": "best",
			"outputs": [
				{
					"internalType": "address",
					"name": "",
					"type": "address"
				}
			],
			"stateMutability": "view",
			"type": "function"
		},
		{
			"inputs": [
				{
					"internalType": "uint256",
					"name": "",
					"type": "uint256"
				}
			],
			"name": "bestscores",
			"outputs": [
				{
					"internalType": "uint256",
					"name": "",
					"type": "uint256"
				}
			],
			"stateMutability": "view",
			"type": "function"
		},
		{
			"inputs": [
				{
					"internalType": "uint256",
					"name": "",
					"type": "uint256"
				}
			],
			"name": "entries",
			"outputs": [
				{
					"internalType": "string",
					"name": "",
					"type": "string"
				}
			],
			"stateMutability": "view",
			"type": "function"
		},
		{
			"inputs": [
				{
					"internalType": "uint256",
					"name": "gid",
					"type": "uint256"
				}
			],
			"name": "fetch_best",
			"outputs": [
				{
					"internalType": "address",
					"name": "",
					"type": "address"
				}
			],
			"stateMutability": "view",
			"type": "function"
		},
		{
			"inputs": [
				{
					"internalType": "uint256",
					"name": "gid",
					"type": "uint256"
				}
			],
			"name": "fetch_bestscore",
			"outputs": [
				{
					"internalType": "uint256",
					"name": "",
					"type": "uint256"
				}
			],
			"stateMutability": "view",
			"type": "function"
		},
		{
			"inputs": [
				{
					"internalType": "uint256",
					"name": "gid",
					"type": "uint256"
				}
			],
			"name": "fetch_myscore",
			"outputs": [
				{
					"internalType": "uint256",
					"name": "",
					"type": "uint256"
				}
			],
			"stateMutability": "view",
			"type": "function"
		},
		{
			"inputs": [
				{
					"internalType": "uint256",
					"name": "gid",
					"type": "uint256"
				}
			],
			"name": "fetch_mytime",
			"outputs": [
				{
					"internalType": "uint256",
					"name": "",
					"type": "uint256"
				}
			],
			"stateMutability": "view",
			"type": "function"
		},
		{
			"inputs": [
				{
					"internalType": "uint256",
					"name": "score",
					"type": "uint256"
				},
				{
					"internalType": "uint256",
					"name": "game",
					"type": "uint256"
				}
			],
			"name": "register",
			"outputs": [],
			"stateMutability": "nonpayable",
			"type": "function"
		},
		{
			"inputs": [
				{
					"internalType": "string",
					"name": "",
					"type": "string"
				}
			],
			"name": "scores",
			"outputs": [
				{
					"internalType": "uint256",
					"name": "rid",
					"type": "uint256"
				},
				{
					"internalType": "uint256",
					"name": "scr",
					"type": "uint256"
				},
				{
					"internalType": "uint256",
					"name": "ts",
					"type": "uint256"
				}
			],
			"stateMutability": "view",
			"type": "function"
		}
	]
}