{
	"data": {
		"bytecode": {
			"linkReferences": {},
			"object": "608060405260008055348015601357600080fd5b506114e5806100236000396000f3fe608060405234801561001057600080fd5b50600436106100935760003560e01c8063b30906d411610066578063b30906d414610158578063cd8e654314610188578063d66d6c10146101ba578063e8281712146101d6578063ef6c5b1e1461020657610093565b80632d8e4b5f1461009857806353c0c8a6146100c857806359abede1146100f85780637c7e723f14610128575b600080fd5b6100b260048036038101906100ad9190610c3f565b610236565b6040516100bf9190610cad565b60405180910390f35b6100e260048036038101906100dd9190610c3f565b610269565b6040516100ef9190610cd7565b60405180910390f35b610112600480360381019061010d9190610c3f565b610311565b60405161011f9190610cad565b60405180910390f35b610142600480360381019061013d9190610c3f565b610353565b60405161014f9190610cd7565b60405180910390f35b610172600480360381019061016d9190610c3f565b610375565b60405161017f9190610d82565b60405180910390f35b6101a2600480360381019061019d9190610ed9565b610415565b6040516101b193929190610f22565b60405180910390f35b6101d460048036038101906101cf9190610f59565b610455565b005b6101f060048036038101906101eb9190610c3f565b610671565b6040516101fd9190610cd7565b60405180910390f35b610220600480360381019061021b9190610c3f565b610689565b60405161022d9190610cd7565b60405180910390f35b60036020528060005260406000206000915054906101000a900473ffffffffffffffffffffffffffffffffffffffff1681565b60008061028d3373ffffffffffffffffffffffffffffffffffffffff166014610731565b61029684610977565b6040516020016102a7929190610fd5565b604051602081830303815290604052905060006002826040516102ca9190610ff9565b908152602001604051809103902060405180606001604052908160008201548152602001600182015481526020016002820154815250509050806020015192505050919050565b6000806003600084815260200190815260200160002060009054906101000a900473ffffffffffffffffffffffffffffffffffffffff16905080915050919050565b6000806004600084815260200190815260200160002054905080915050919050565b600160205280600052604060002060009150905080546103949061103f565b80601f01602080910402602001604051908101604052809291908181526020018280546103c09061103f565b801561040d5780601f106103e25761010080835404028352916020019161040d565b820191906000526020600020905b8154815290600101906020018083116103f057829003601f168201915b505050505081565b6002818051602081018201805184825260208301602085012081835280955050505050506000915090508060000154908060010154908060020154905083565b60018114806104645750600281145b6104a3576040517f08c379a000000000000000000000000000000000000000000000000000000000815260040161049a906110bc565b60405180910390fd5b60006104c63373ffffffffffffffffffffffffffffffffffffffff166014610731565b6104cf83610977565b6040516020016104e0929190610fd5565b604051602081830303815290604052905060006002826040516105039190610ff9565b90815260200160405180910390209050838160010154101561066b5760006001600054610530919061110b565b9050600082600001549050600060405180606001604052808481526020018881526020014281525090508060028660405161056b9190610ff9565b9081526020016040518091039020600082015181600001556020820151816001015560408201518160020155905050846001600085815260200190815260200160002090816105ba91906112eb565b506001600083815260200190815260200160002060006105da9190610b98565b82600081905550866004600088815260200190815260200160002054101561066757866004600088815260200190815260200160002081905550336003600088815260200190815260200160002060006101000a81548173ffffffffffffffffffffffffffffffffffffffff021916908373ffffffffffffffffffffffffffffffffffffffff1602179055505b5050505b50505050565b60046020528060005260406000206000915090505481565b6000806106ad3373ffffffffffffffffffffffffffffffffffffffff166014610731565b6106b684610977565b6040516020016106c7929190610fd5565b604051602081830303815290604052905060006002826040516106ea9190610ff9565b908152602001604051809103902060405180606001604052908160008201548152602001600182015481526020016002820154815250509050806040015192505050919050565b606060008390506000600284600261074991906113bd565b610753919061110b565b67ffffffffffffffff81111561076c5761076b610dae565b5b6040519080825280601f01601f19166020018201604052801561079e5781602001600182028036833780820191505090505b5090507f3000000000000000000000000000000000000000000000000000000000000000816000815181106107d6576107d56113ff565b5b60200101907effffffffffffffffffffffffffffffffffffffffffffffffffffffffffffff1916908160001a9053507f78000000000000000000000000000000000000000000000000000000000000008160018151811061083a576108396113ff565b5b60200101907effffffffffffffffffffffffffffffffffffffffffffffffffffffffffffff1916908160001a9053506000600185600261087a91906113bd565b610884919061110b565b90505b6001811115610924577f3031323334353637383961626364656600000000000000000000000000000000600f8416601081106108c6576108c56113ff565b5b1a60f81b8282815181106108dd576108dc6113ff565b5b60200101907effffffffffffffffffffffffffffffffffffffffffffffffffffffffffffff1916908160001a905350600483901c92508061091d9061142e565b9050610887565b506000821461096c5784846040517fe22e27eb000000000000000000000000000000000000000000000000000000008152600401610963929190611457565b60405180910390fd5b809250505092915050565b60606000600161098684610a45565b01905060008167ffffffffffffffff8111156109a5576109a4610dae565b5b6040519080825280601f01601f1916602001820160405280156109d75781602001600182028036833780820191505090505b509050600082602001820190505b600115610a3a578080600190039150507f3031323334353637383961626364656600000000000000000000000000000000600a86061a8153600a8581610a2e57610a2d611480565b5b049450600085036109e5575b819350505050919050565b600080600090507a184f03e93ff9f4daa797ed6e38ed64bf6a1f0100000000000000008310610aa3577a184f03e93ff9f4daa797ed6e38ed64bf6a1f0100000000000000008381610a9957610a98611480565b5b0492506040810190505b6d04ee2d6d415b85acef81000000008310610ae0576d04ee2d6d415b85acef81000000008381610ad657610ad5611480565b5b0492506020810190505b662386f26fc100008310610b0f57662386f26fc100008381610b0557610b04611480565b5b0492506010810190505b6305f5e1008310610b38576305f5e1008381610b2e57610b2d611480565b5b0492506008810190505b6127108310610b5d576127108381610b5357610b52611480565b5b0492506004810190505b60648310610b805760648381610b7657610b75611480565b5b0492506002810190505b600a8310610b8f576001810190505b80915050919050565b508054610ba49061103f565b6000825580601f10610bb65750610bd5565b601f016020900490600052602060002090810190610bd49190610bd8565b5b50565b5b80821115610bf1576000816000905550600101610bd9565b5090565b6000604051905090565b600080fd5b600080fd5b6000819050919050565b610c1c81610c09565b8114610c2757600080fd5b50565b600081359050610c3981610c13565b92915050565b600060208284031215610c5557610c54610bff565b5b6000610c6384828501610c2a565b91505092915050565b600073ffffffffffffffffffffffffffffffffffffffff82169050919050565b6000610c9782610c6c565b9050919050565b610ca781610c8c565b82525050565b6000602082019050610cc26000830184610c9e565b92915050565b610cd181610c09565b82525050565b6000602082019050610cec6000830184610cc8565b92915050565b600081519050919050565b600082825260208201905092915050565b60005b83811015610d2c578082015181840152602081019050610d11565b60008484015250505050565b6000601f19601f8301169050919050565b6000610d5482610cf2565b610d5e8185610cfd565b9350610d6e818560208601610d0e565b610d7781610d38565b840191505092915050565b60006020820190508181036000830152610d9c8184610d49565b905092915050565b600080fd5b600080fd5b7f4e487b7100000000000000000000000000000000000000000000000000000000600052604160045260246000fd5b610de682610d38565b810181811067ffffffffffffffff82111715610e0557610e04610dae565b5b80604052505050565b6000610e18610bf5565b9050610e248282610ddd565b919050565b600067ffffffffffffffff821115610e4457610e43610dae565b5b610e4d82610d38565b9050602081019050919050565b82818337600083830152505050565b6000610e7c610e7784610e29565b610e0e565b905082815260208101848484011115610e9857610e97610da9565b5b610ea3848285610e5a565b509392505050565b600082601f830112610ec057610ebf610da4565b5b8135610ed0848260208601610e69565b91505092915050565b600060208284031215610eef57610eee610bff565b5b600082013567ffffffffffffffff811115610f0d57610f0c610c04565b5b610f1984828501610eab565b91505092915050565b6000606082019050610f376000830186610cc8565b610f446020830185610cc8565b610f516040830184610cc8565b949350505050565b60008060408385031215610f7057610f6f610bff565b5b6000610f7e85828601610c2a565b9250506020610f8f85828601610c2a565b9150509250929050565b600081905092915050565b6000610faf82610cf2565b610fb98185610f99565b9350610fc9818560208601610d0e565b80840191505092915050565b6000610fe18285610fa4565b9150610fed8284610fa4565b91508190509392505050565b60006110058284610fa4565b915081905092915050565b7f4e487b7100000000000000000000000000000000000000000000000000000000600052602260045260246000fd5b6000600282049050600182168061105757607f821691505b60208210810361106a57611069611010565b5b50919050565b7f67616d652069642069732031206f722032206f6e6c7900000000000000000000600082015250565b60006110a6601683610cfd565b91506110b182611070565b602082019050919050565b600060208201905081810360008301526110d581611099565b9050919050565b7f4e487b7100000000000000000000000000000000000000000000000000000000600052601160045260246000fd5b600061111682610c09565b915061112183610c09565b9250828201905080821115611139576111386110dc565b5b92915050565b60008190508160005260206000209050919050565b60006020601f8301049050919050565b600082821b905092915050565b6000600883026111a17fffffffffffffffffffffffffffffffffffffffffffffffffffffffffffffffff82611164565b6111ab8683611164565b95508019841693508086168417925050509392505050565b6000819050919050565b60006111e86111e36111de84610c09565b6111c3565b610c09565b9050919050565b6000819050919050565b611202836111cd565b61121661120e826111ef565b848454611171565b825550505050565b600090565b61122b61121e565b6112368184846111f9565b505050565b5b8181101561125a5761124f600082611223565b60018101905061123c565b5050565b601f82111561129f576112708161113f565b61127984611154565b81016020851015611288578190505b61129c61129485611154565b83018261123b565b50505b505050565b600082821c905092915050565b60006112c2600019846008026112a4565b1980831691505092915050565b60006112db83836112b1565b9150826002028217905092915050565b6112f482610cf2565b67ffffffffffffffff81111561130d5761130c610dae565b5b611317825461103f565b61132282828561125e565b600060209050601f8311600181146113555760008415611343578287015190505b61134d85826112cf565b8655506113b5565b601f1984166113638661113f565b60005b8281101561138b57848901518255600182019150602085019450602081019050611366565b868310156113a857848901516113a4601f8916826112b1565b8355505b6001600288020188555050505b505050505050565b60006113c882610c09565b91506113d383610c09565b92508282026113e181610c09565b915082820484148315176113f8576113f76110dc565b5b5092915050565b7f4e487b7100000000000000000000000000000000000000000000000000000000600052603260045260246000fd5b600061143982610c09565b91506000820361144c5761144b6110dc565b5b600182039050919050565b600060408201905061146c6000830185610cc8565b6114796020830184610cc8565b9392505050565b7f4e487b7100000000000000000000000000000000000000000000000000000000600052601260045260246000fdfea2646970667358221220a8388cf2a5008018c6b537d25f8f316736f631527a807450a3ad9f073d7f8c0364736f6c634300081a0033",
			"opcodes": "PUSH1 0x80 PUSH1 0x40 MSTORE PUSH1 0x0 DUP1 SSTORE CALLVALUE DUP1 ISZERO PUSH1 0x13 JUMPI PUSH1 0x0 DUP1 REVERT JUMPDEST POP PUSH2 0x14E5 DUP1 PUSH2 0x23 PUSH1 0x0 CODECOPY PUSH1 0x0 RETURN INVALID PUSH1 0x80 PUSH1 0x40 MSTORE CALLVALUE DUP1 ISZERO PUSH2 0x10 JUMPI PUSH1 0x0 DUP1 REVERT JUMPDEST POP PUSH1 0x4 CALLDATASIZE LT PUSH2 0x93 JUMPI PUSH1 0x0 CALLDATALOAD PUSH1 0xE0 SHR DUP1 PUSH4 0xB30906D4 GT PUSH2 0x66 JUMPI DUP1 PUSH4 0xB30906D4 EQ PUSH2 0x158 JUMPI DUP1 PUSH4 0xCD8E6543 EQ PUSH2 0x188 JUMPI DUP1 PUSH4 0xD66D6C10 EQ PUSH2 0x1BA JUMPI DUP1 PUSH4 0xE8281712 EQ PUSH2 0x1D6 JUMPI DUP1 PUSH4 0xEF6C5B1E EQ PUSH2 0x206 JUMPI PUSH2 0x93 JUMP JUMPDEST DUP1 PUSH4 0x2D8E4B5F EQ PUSH2 0x98 JUMPI DUP1 PUSH4 0x53C0C8A6 EQ PUSH2 0xC8 JUMPI DUP1 PUSH4 0x59ABEDE1 EQ PUSH2 0xF8 JUMPI DUP1 PUSH4 0x7C7E723F EQ PUSH2 0x128 JUMPI JUMPDEST PUSH1 0x0 DUP1 REVERT JUMPDEST PUSH2 0xB2 PUSH1 0x4 DUP1 CALLDATASIZE SUB DUP2 ADD SWAP1 PUSH2 0xAD SWAP2 SWAP1 PUSH2 0xC3F JUMP JUMPDEST PUSH2 0x236 JUMP JUMPDEST PUSH1 0x40 MLOAD PUSH2 0xBF SWAP2 SWAP1 PUSH2 0xCAD JUMP JUMPDEST PUSH1 0x40 MLOAD DUP1 SWAP2 SUB SWAP1 RETURN JUMPDEST PUSH2 0xE2 PUSH1 0x4 DUP1 CALLDATASIZE SUB DUP2 ADD SWAP1 PUSH2 0xDD SWAP2 SWAP1 PUSH2 0xC3F JUMP JUMPDEST PUSH2 0x269 JUMP JUMPDEST PUSH1 0x40 MLOAD PUSH2 0xEF SWAP2 SWAP1 PUSH2 0xCD7 JUMP JUMPDEST PUSH1 0x40 MLOAD DUP1 SWAP2 SUB SWAP1 RETURN JUMPDEST PUSH2 0x112 PUSH1 0x4 DUP1 CALLDATASIZE SUB DUP2 ADD SWAP1 PUSH2 0x10D SWAP2 SWAP1 PUSH2 0xC3F JUMP JUMPDEST PUSH2 0x311 JUMP JUMPDEST PUSH1 0x40 MLOAD PUSH2 0x11F SWAP2 SWAP1 PUSH2 0xCAD JUMP JUMPDEST PUSH1 0x40 MLOAD DUP1 SWAP2 SUB SWAP1 RETURN JUMPDEST PUSH2 0x142 PUSH1 0x4 DUP1 CALLDATASIZE SUB DUP2 ADD SWAP1 PUSH2 0x13D SWAP2 SWAP1 PUSH2 0xC3F JUMP JUMPDEST PUSH2 0x353 JUMP JUMPDEST PUSH1 0x40 MLOAD PUSH2 0x14F SWAP2 SWAP1 PUSH2 0xCD7 JUMP JUMPDEST PUSH1 0x40 MLOAD DUP1 SWAP2 SUB SWAP1 RETURN JUMPDEST PUSH2 0x172 PUSH1 0x4 DUP1 CALLDATASIZE SUB DUP2 ADD SWAP1 PUSH2 0x16D SWAP2 SWAP1 PUSH2 0xC3F JUMP JUMPDEST PUSH2 0x375 JUMP JUMPDEST PUSH1 0x40 MLOAD PUSH2 0x17F SWAP2 SWAP1 PUSH2 0xD82 JUMP JUMPDEST PUSH1 0x40 MLOAD DUP1 SWAP2 SUB SWAP1 RETURN JUMPDEST PUSH2 0x1A2 PUSH1 0x4 DUP1 CALLDATASIZE SUB DUP2 ADD SWAP1 PUSH2 0x19D SWAP2 SWAP1 PUSH2 0xED9 JUMP JUMPDEST PUSH2 0x415 JUMP JUMPDEST PUSH1 0x40 MLOAD PUSH2 0x1B1 SWAP4 SWAP3 SWAP2 SWAP1 PUSH2 0xF22 JUMP JUMPDEST PUSH1 0x40 MLOAD DUP1 SWAP2 SUB SWAP1 RETURN JUMPDEST PUSH2 0x1D4 PUSH1 0x4 DUP1 CALLDATASIZE SUB DUP2 ADD SWAP1 PUSH2 0x1CF SWAP2 SWAP1 PUSH2 0xF59 JUMP JUMPDEST PUSH2 0x455 JUMP JUMPDEST STOP JUMPDEST PUSH2 0x1F0 PUSH1 0x4 DUP1 CALLDATASIZE SUB DUP2 ADD SWAP1 PUSH2 0x1EB SWAP2 SWAP1 PUSH2 0xC3F JUMP JUMPDEST PUSH2 0x671 JUMP JUMPDEST PUSH1 0x40 MLOAD PUSH2 0x1FD SWAP2 SWAP1 PUSH2 0xCD7 JUMP JUMPDEST PUSH1 0x40 MLOAD DUP1 SWAP2 SUB SWAP1 RETURN JUMPDEST PUSH2 0x220 PUSH1 0x4 DUP1 CALLDATASIZE SUB DUP2 ADD SWAP1 PUSH2 0x21B SWAP2 SWAP1 PUSH2 0xC3F JUMP JUMPDEST PUSH2 0x689 JUMP JUMPDEST PUSH1 0x40 MLOAD PUSH2 0x22D SWAP2 SWAP1 PUSH2 0xCD7 JUMP JUMPDEST PUSH1 0x40 MLOAD DUP1 SWAP2 SUB SWAP1 RETURN JUMPDEST PUSH1 0x3 PUSH1 0x20 MSTORE DUP1 PUSH1 0x0 MSTORE PUSH1 0x40 PUSH1 0x0 KECCAK256 PUSH1 0x0 SWAP2 POP SLOAD SWAP1 PUSH2 0x100 EXP SWAP1 DIV PUSH20 0xFFFFFFFFFFFFFFFFFFFFFFFFFFFFFFFFFFFFFFFF AND DUP2 JUMP JUMPDEST PUSH1 0x0 DUP1 PUSH2 0x28D CALLER PUSH20 0xFFFFFFFFFFFFFFFFFFFFFFFFFFFFFFFFFFFFFFFF AND PUSH1 0x14 PUSH2 0x731 JUMP JUMPDEST PUSH2 0x296 DUP5 PUSH2 0x977 JUMP JUMPDEST PUSH1 0x40 MLOAD PUSH1 0x20 ADD PUSH2 0x2A7 SWAP3 SWAP2 SWAP1 PUSH2 0xFD5 JUMP JUMPDEST PUSH1 0x40 MLOAD PUSH1 0x20 DUP2 DUP4 SUB SUB DUP2 MSTORE SWAP1 PUSH1 0x40 MSTORE SWAP1 POP PUSH1 0x0 PUSH1 0x2 DUP3 PUSH1 0x40 MLOAD PUSH2 0x2CA SWAP2 SWAP1 PUSH2 0xFF9 JUMP JUMPDEST SWAP1 DUP2 MSTORE PUSH1 0x20 ADD PUSH1 0x40 MLOAD DUP1 SWAP2 SUB SWAP1 KECCAK256 PUSH1 0x40 MLOAD DUP1 PUSH1 0x60 ADD PUSH1 0x40 MSTORE SWAP1 DUP2 PUSH1 0x0 DUP3 ADD SLOAD DUP2 MSTORE PUSH1 0x20 ADD PUSH1 0x1 DUP3 ADD SLOAD DUP2 MSTORE PUSH1 0x20 ADD PUSH1 0x2 DUP3 ADD SLOAD DUP2 MSTORE POP POP SWAP1 POP DUP1 PUSH1 0x20 ADD MLOAD SWAP3 POP POP POP SWAP2 SWAP1 POP JUMP JUMPDEST PUSH1 0x0 DUP1 PUSH1 0x3 PUSH1 0x0 DUP5 DUP2 MSTORE PUSH1 0x20 ADD SWAP1 DUP2 MSTORE PUSH1 0x20 ADD PUSH1 0x0 KECCAK256 PUSH1 0x0 SWAP1 SLOAD SWAP1 PUSH2 0x100 EXP SWAP1 DIV PUSH20 0xFFFFFFFFFFFFFFFFFFFFFFFFFFFFFFFFFFFFFFFF AND SWAP1 POP DUP1 SWAP2 POP POP SWAP2 SWAP1 POP JUMP JUMPDEST PUSH1 0x0 DUP1 PUSH1 0x4 PUSH1 0x0 DUP5 DUP2 MSTORE PUSH1 0x20 ADD SWAP1 DUP2 MSTORE PUSH1 0x20 ADD PUSH1 0x0 KECCAK256 SLOAD SWAP1 POP DUP1 SWAP2 POP POP SWAP2 SWAP1 POP JUMP JUMPDEST PUSH1 0x1 PUSH1 0x20 MSTORE DUP1 PUSH1 0x0 MSTORE PUSH1 0x40 PUSH1 0x0 KECCAK256 PUSH1 0x0 SWAP2 POP SWAP1 POP DUP1 SLOAD PUSH2 0x394 SWAP1 PUSH2 0x103F JUMP JUMPDEST DUP1 PUSH1 0x1F ADD PUSH1 0x20 DUP1 SWAP2 DIV MUL PUSH1 0x20 ADD PUSH1 0x40 MLOAD SWAP1 DUP2 ADD PUSH1 0x40 MSTORE DUP1 SWAP3 SWAP2 SWAP1 DUP2 DUP2 MSTORE PUSH1 0x20 ADD DUP3 DUP1 SLOAD PUSH2 0x3C0 SWAP1 PUSH2 0x103F JUMP JUMPDEST DUP1 ISZERO PUSH2 0x40D JUMPI DUP1 PUSH1 0x1F LT PUSH2 0x3E2 JUMPI PUSH2 0x100 DUP1 DUP4 SLOAD DIV MUL DUP4 MSTORE SWAP2 PUSH1 0x20 ADD SWAP2 PUSH2 0x40D JUMP JUMPDEST DUP3 ADD SWAP2 SWAP1 PUSH1 0x0 MSTORE PUSH1 0x20 PUSH1 0x0 KECCAK256 SWAP1 JUMPDEST DUP2 SLOAD DUP2 MSTORE SWAP1 PUSH1 0x1 ADD SWAP1 PUSH1 0x20 ADD DUP1 DUP4 GT PUSH2 0x3F0 JUMPI DUP3 SWAP1 SUB PUSH1 0x1F AND DUP3 ADD SWAP2 JUMPDEST POP POP POP POP POP DUP2 JUMP JUMPDEST PUSH1 0x2 DUP2 DUP1 MLOAD PUSH1 0x20 DUP2 ADD DUP3 ADD DUP1 MLOAD DUP5 DUP3 MSTORE PUSH1 0x20 DUP4 ADD PUSH1 0x20 DUP6 ADD KECCAK256 DUP2 DUP4 MSTORE DUP1 SWAP6 POP POP POP POP POP POP PUSH1 0x0 SWAP2 POP SWAP1 POP DUP1 PUSH1 0x0 ADD SLOAD SWAP1 DUP1 PUSH1 0x1 ADD SLOAD SWAP1 DUP1 PUSH1 0x2 ADD SLOAD SWAP1 POP DUP4 JUMP JUMPDEST PUSH1 0x1 DUP2 EQ DUP1 PUSH2 0x464 JUMPI POP PUSH1 0x2 DUP2 EQ JUMPDEST PUSH2 0x4A3 JUMPI PUSH1 0x40 MLOAD PUSH32 0x8C379A000000000000000000000000000000000000000000000000000000000 DUP2 MSTORE PUSH1 0x4 ADD PUSH2 0x49A SWAP1 PUSH2 0x10BC JUMP JUMPDEST PUSH1 0x40 MLOAD DUP1 SWAP2 SUB SWAP1 REVERT JUMPDEST PUSH1 0x0 PUSH2 0x4C6 CALLER PUSH20 0xFFFFFFFFFFFFFFFFFFFFFFFFFFFFFFFFFFFFFFFF AND PUSH1 0x14 PUSH2 0x731 JUMP JUMPDEST PUSH2 0x4CF DUP4 PUSH2 0x977 JUMP JUMPDEST PUSH1 0x40 MLOAD PUSH1 0x20 ADD PUSH2 0x4E0 SWAP3 SWAP2 SWAP1 PUSH2 0xFD5 JUMP JUMPDEST PUSH1 0x40 MLOAD PUSH1 0x20 DUP2 DUP4 SUB SUB DUP2 MSTORE SWAP1 PUSH1 0x40 MSTORE SWAP1 POP PUSH1 0x0 PUSH1 0x2 DUP3 PUSH1 0x40 MLOAD PUSH2 0x503 SWAP2 SWAP1 PUSH2 0xFF9 JUMP JUMPDEST SWAP1 DUP2 MSTORE PUSH1 0x20 ADD PUSH1 0x40 MLOAD DUP1 SWAP2 SUB SWAP1 KECCAK256 SWAP1 POP DUP4 DUP2 PUSH1 0x1 ADD SLOAD LT ISZERO PUSH2 0x66B JUMPI PUSH1 0x0 PUSH1 0x1 PUSH1 0x0 SLOAD PUSH2 0x530 SWAP2 SWAP1 PUSH2 0x110B JUMP JUMPDEST SWAP1 POP PUSH1 0x0 DUP3 PUSH1 0x0 ADD SLOAD SWAP1 POP PUSH1 0x0 PUSH1 0x40 MLOAD DUP1 PUSH1 0x60 ADD PUSH1 0x40 MSTORE DUP1 DUP5 DUP2 MSTORE PUSH1 0x20 ADD DUP9 DUP2 MSTORE PUSH1 0x20 ADD TIMESTAMP DUP2 MSTORE POP SWAP1 POP DUP1 PUSH1 0x2 DUP7 PUSH1 0x40 MLOAD PUSH2 0x56B SWAP2 SWAP1 PUSH2 0xFF9 JUMP JUMPDEST SWAP1 DUP2 MSTORE PUSH1 0x20 ADD PUSH1 0x40 MLOAD DUP1 SWAP2 SUB SWAP1 KECCAK256 PUSH1 0x0 DUP3 ADD MLOAD DUP2 PUSH1 0x0 ADD SSTORE PUSH1 0x20 DUP3 ADD MLOAD DUP2 PUSH1 0x1 ADD SSTORE PUSH1 0x40 DUP3 ADD MLOAD DUP2 PUSH1 0x2 ADD SSTORE SWAP1 POP POP DUP5 PUSH1 0x1 PUSH1 0x0 DUP6 DUP2 MSTORE PUSH1 0x20 ADD SWAP1 DUP2 MSTORE PUSH1 0x20 ADD PUSH1 0x0 KECCAK256 SWAP1 DUP2 PUSH2 0x5BA SWAP2 SWAP1 PUSH2 0x12EB JUMP JUMPDEST POP PUSH1 0x1 PUSH1 0x0 DUP4 DUP2 MSTORE PUSH1 0x20 ADD SWAP1 DUP2 MSTORE PUSH1 0x20 ADD PUSH1 0x0 KECCAK256 PUSH1 0x0 PUSH2 0x5DA SWAP2 SWAP1 PUSH2 0xB98 JUMP JUMPDEST DUP3 PUSH1 0x0 DUP2 SWAP1 SSTORE POP DUP7 PUSH1 0x4 PUSH1 0x0 DUP9 DUP2 MSTORE PUSH1 0x20 ADD SWAP1 DUP2 MSTORE PUSH1 0x20 ADD PUSH1 0x0 KECCAK256 SLOAD LT ISZERO PUSH2 0x667 JUMPI DUP7 PUSH1 0x4 PUSH1 0x0 DUP9 DUP2 MSTORE PUSH1 0x20 ADD SWAP1 DUP2 MSTORE PUSH1 0x20 ADD PUSH1 0x0 KECCAK256 DUP2 SWAP1 SSTORE POP CALLER PUSH1 0x3 PUSH1 0x0 DUP9 DUP2 MSTORE PUSH1 0x20 ADD SWAP1 DUP2 MSTORE PUSH1 0x20 ADD PUSH1 0x0 KECCAK256 PUSH1 0x0 PUSH2 0x100 EXP DUP2 SLOAD DUP2 PUSH20 0xFFFFFFFFFFFFFFFFFFFFFFFFFFFFFFFFFFFFFFFF MUL NOT AND SWAP1 DUP4 PUSH20 0xFFFFFFFFFFFFFFFFFFFFFFFFFFFFFFFFFFFFFFFF AND MUL OR SWAP1 SSTORE POP JUMPDEST POP POP POP JUMPDEST POP POP POP POP JUMP JUMPDEST PUSH1 0x4 PUSH1 0x20 MSTORE DUP1 PUSH1 0x0 MSTORE PUSH1 0x40 PUSH1 0x0 KECCAK256 PUSH1 0x0 SWAP2 POP SWAP1 POP SLOAD DUP2 JUMP JUMPDEST PUSH1 0x0 DUP1 PUSH2 0x6AD CALLER PUSH20 0xFFFFFFFFFFFFFFFFFFFFFFFFFFFFFFFFFFFFFFFF AND PUSH1 0x14 PUSH2 0x731 JUMP JUMPDEST PUSH2 0x6B6 DUP5 PUSH2 0x977 JUMP JUMPDEST PUSH1 0x40 MLOAD PUSH1 0x20 ADD PUSH2 0x6C7 SWAP3 SWAP2 SWAP1 PUSH2 0xFD5 JUMP JUMPDEST PUSH1 0x40 MLOAD PUSH1 0x20 DUP2 DUP4 SUB SUB DUP2 MSTORE SWAP1 PUSH1 0x40 MSTORE SWAP1 POP PUSH1 0x0 PUSH1 0x2 DUP3 PUSH1 0x40 MLOAD PUSH2 0x6EA SWAP2 SWAP1 PUSH2 0xFF9 JUMP JUMPDEST SWAP1 DUP2 MSTORE PUSH1 0x20 ADD PUSH1 0x40 MLOAD DUP1 SWAP2 SUB SWAP1 KECCAK256 PUSH1 0x40 MLOAD DUP1 PUSH1 0x60 ADD PUSH1 0x40 MSTORE SWAP1 DUP2 PUSH1 0x0 DUP3 ADD SLOAD DUP2 MSTORE PUSH1 0x20 ADD PUSH1 0x1 DUP3 ADD SLOAD DUP2 MSTORE PUSH1 0x20 ADD PUSH1 0x2 DUP3 ADD SLOAD DUP2 MSTORE POP POP SWAP1 POP DUP1 PUSH1 0x40 ADD MLOAD SWAP3 POP POP POP SWAP2 SWAP1 POP JUMP JUMPDEST PUSH1 0x60 PUSH1 0x0 DUP4 SWAP1 POP PUSH1 0x0 PUSH1 0x2 DUP5 PUSH1 0x2 PUSH2 0x749 SWAP2 SWAP1 PUSH2 0x13BD JUMP JUMPDEST PUSH2 0x753 SWAP2 SWAP1 PUSH2 0x110B JUMP JUMPDEST PUSH8 0xFFFFFFFFFFFFFFFF DUP2 GT ISZERO PUSH2 0x76C JUMPI PUSH2 0x76B PUSH2 0xDAE JUMP JUMPDEST JUMPDEST PUSH1 0x40 MLOAD SWAP1 DUP1 DUP3 MSTORE DUP1 PUSH1 0x1F ADD PUSH1 0x1F NOT AND PUSH1 0x20 ADD DUP3 ADD PUSH1 0x40 MSTORE DUP1 ISZERO PUSH2 0x79E JUMPI DUP2 PUSH1 0x20 ADD PUSH1 0x1 DUP3 MUL DUP1 CALLDATASIZE DUP4 CALLDATACOPY DUP1 DUP3 ADD SWAP2 POP POP SWAP1 POP JUMPDEST POP SWAP1 POP PUSH32 0x3000000000000000000000000000000000000000000000000000000000000000 DUP2 PUSH1 0x0 DUP2 MLOAD DUP2 LT PUSH2 0x7D6 JUMPI PUSH2 0x7D5 PUSH2 0x13FF JUMP JUMPDEST JUMPDEST PUSH1 0x20 ADD ADD SWAP1 PUSH31 0xFFFFFFFFFFFFFFFFFFFFFFFFFFFFFFFFFFFFFFFFFFFFFFFFFFFFFFFFFFFFFF NOT AND SWAP1 DUP2 PUSH1 0x0 BYTE SWAP1 MSTORE8 POP PUSH32 0x7800000000000000000000000000000000000000000000000000000000000000 DUP2 PUSH1 0x1 DUP2 MLOAD DUP2 LT PUSH2 0x83A JUMPI PUSH2 0x839 PUSH2 0x13FF JUMP JUMPDEST JUMPDEST PUSH1 0x20 ADD ADD SWAP1 PUSH31 0xFFFFFFFFFFFFFFFFFFFFFFFFFFFFFFFFFFFFFFFFFFFFFFFFFFFFFFFFFFFFFF NOT AND SWAP1 DUP2 PUSH1 0x0 BYTE SWAP1 MSTORE8 POP PUSH1 0x0 PUSH1 0x1 DUP6 PUSH1 0x2 PUSH2 0x87A SWAP2 SWAP1 PUSH2 0x13BD JUMP JUMPDEST PUSH2 0x884 SWAP2 SWAP1 PUSH2 0x110B JUMP JUMPDEST SWAP1 POP JUMPDEST PUSH1 0x1 DUP2 GT ISZERO PUSH2 0x924 JUMPI PUSH32 0x3031323334353637383961626364656600000000000000000000000000000000 PUSH1 0xF DUP5 AND PUSH1 0x10 DUP2 LT PUSH2 0x8C6 JUMPI PUSH2 0x8C5 PUSH2 0x13FF JUMP JUMPDEST JUMPDEST BYTE PUSH1 0xF8 SHL DUP3 DUP3 DUP2 MLOAD DUP2 LT PUSH2 0x8DD JUMPI PUSH2 0x8DC PUSH2 0x13FF JUMP JUMPDEST JUMPDEST PUSH1 0x20 ADD ADD SWAP1 PUSH31 0xFFFFFFFFFFFFFFFFFFFFFFFFFFFFFFFFFFFFFFFFFFFFFFFFFFFFFFFFFFFFFF NOT AND SWAP1 DUP2 PUSH1 0x0 BYTE SWAP1 MSTORE8 POP PUSH1 0x4 DUP4 SWAP1 SHR SWAP3 POP DUP1 PUSH2 0x91D SWAP1 PUSH2 0x142E JUMP JUMPDEST SWAP1 POP PUSH2 0x887 JUMP JUMPDEST POP PUSH1 0x0 DUP3 EQ PUSH2 0x96C JUMPI DUP5 DUP5 PUSH1 0x40 MLOAD PUSH32 0xE22E27EB00000000000000000000000000000000000000000000000000000000 DUP2 MSTORE PUSH1 0x4 ADD PUSH2 0x963 SWAP3 SWAP2 SWAP1 PUSH2 0x1457 JUMP JUMPDEST PUSH1 0x40 MLOAD DUP1 SWAP2 SUB SWAP1 REVERT JUMPDEST DUP1 SWAP3 POP POP POP SWAP3 SWAP2 POP POP JUMP JUMPDEST PUSH1 0x60 PUSH1 0x0 PUSH1 0x1 PUSH2 0x986 DUP5 PUSH2 0xA45 JUMP JUMPDEST ADD SWAP1 POP PUSH1 0x0 DUP2 PUSH8 0xFFFFFFFFFFFFFFFF DUP2 GT ISZERO PUSH2 0x9A5 JUMPI PUSH2 0x9A4 PUSH2 0xDAE JUMP JUMPDEST JUMPDEST PUSH1 0x40 MLOAD SWAP1 DUP1 DUP3 MSTORE DUP1 PUSH1 0x1F ADD PUSH1 0x1F NOT AND PUSH1 0x20 ADD DUP3 ADD PUSH1 0x40 MSTORE DUP1 ISZERO PUSH2 0x9D7 JUMPI DUP2 PUSH1 0x20 ADD PUSH1 0x1 DUP3 MUL DUP1 CALLDATASIZE DUP4 CALLDATACOPY DUP1 DUP3 ADD SWAP2 POP POP SWAP1 POP JUMPDEST POP SWAP1 POP PUSH1 0x0 DUP3 PUSH1 0x20 ADD DUP3 ADD SWAP1 POP JUMPDEST PUSH1 0x1 ISZERO PUSH2 0xA3A JUMPI DUP1 DUP1 PUSH1 0x1 SWAP1 SUB SWAP2 POP POP PUSH32 0x3031323334353637383961626364656600000000000000000000000000000000 PUSH1 0xA DUP7 MOD BYTE DUP2 MSTORE8 PUSH1 0xA DUP6 DUP2 PUSH2 0xA2E JUMPI PUSH2 0xA2D PUSH2 0x1480 JUMP JUMPDEST JUMPDEST DIV SWAP5 POP PUSH1 0x0 DUP6 SUB PUSH2 0x9E5 JUMPI JUMPDEST DUP2 SWAP4 POP POP POP POP SWAP2 SWAP1 POP JUMP JUMPDEST PUSH1 0x0 DUP1 PUSH1 0x0 SWAP1 POP PUSH27 0x184F03E93FF9F4DAA797ED6E38ED64BF6A1F010000000000000000 DUP4 LT PUSH2 0xAA3 JUMPI PUSH27 0x184F03E93FF9F4DAA797ED6E38ED64BF6A1F010000000000000000 DUP4 DUP2 PUSH2 0xA99 JUMPI PUSH2 0xA98 PUSH2 0x1480 JUMP JUMPDEST JUMPDEST DIV SWAP3 POP PUSH1 0x40 DUP2 ADD SWAP1 POP JUMPDEST PUSH14 0x4EE2D6D415B85ACEF8100000000 DUP4 LT PUSH2 0xAE0 JUMPI PUSH14 0x4EE2D6D415B85ACEF8100000000 DUP4 DUP2 PUSH2 0xAD6 JUMPI PUSH2 0xAD5 PUSH2 0x1480 JUMP JUMPDEST JUMPDEST DIV SWAP3 POP PUSH1 0x20 DUP2 ADD SWAP1 POP JUMPDEST PUSH7 0x2386F26FC10000 DUP4 LT PUSH2 0xB0F JUMPI PUSH7 0x2386F26FC10000 DUP4 DUP2 PUSH2 0xB05 JUMPI PUSH2 0xB04 PUSH2 0x1480 JUMP JUMPDEST JUMPDEST DIV SWAP3 POP PUSH1 0x10 DUP2 ADD SWAP1 POP JUMPDEST PUSH4 0x5F5E100 DUP4 LT PUSH2 0xB38 JUMPI PUSH4 0x5F5E100 DUP4 DUP2 PUSH2 0xB2E JUMPI PUSH2 0xB2D PUSH2 0x1480 JUMP JUMPDEST JUMPDEST DIV SWAP3 POP PUSH1 0x8 DUP2 ADD SWAP1 POP JUMPDEST PUSH2 0x2710 DUP4 LT PUSH2 0xB5D JUMPI PUSH2 0x2710 DUP4 DUP2 PUSH2 0xB53 JUMPI PUSH2 0xB52 PUSH2 0x1480 JUMP JUMPDEST JUMPDEST DIV SWAP3 POP PUSH1 0x4 DUP2 ADD SWAP1 POP JUMPDEST PUSH1 0x64 DUP4 LT PUSH2 0xB80 JUMPI PUSH1 0x64 DUP4 DUP2 PUSH2 0xB76 JUMPI PUSH2 0xB75 PUSH2 0x1480 JUMP JUMPDEST JUMPDEST DIV SWAP3 POP PUSH1 0x2 DUP2 ADD SWAP1 POP JUMPDEST PUSH1 0xA DUP4 LT PUSH2 0xB8F JUMPI PUSH1 0x1 DUP2 ADD SWAP1 POP JUMPDEST DUP1 SWAP2 POP POP SWAP2 SWAP1 POP JUMP JUMPDEST POP DUP1 SLOAD PUSH2 0xBA4 SWAP1 PUSH2 0x103F JUMP JUMPDEST PUSH1 0x0 DUP3 SSTORE DUP1 PUSH1 0x1F LT PUSH2 0xBB6 JUMPI POP PUSH2 0xBD5 JUMP JUMPDEST PUSH1 0x1F ADD PUSH1 0x20 SWAP1 DIV SWAP1 PUSH1 0x0 MSTORE PUSH1 0x20 PUSH1 0x0 KECCAK256 SWAP1 DUP2 ADD SWAP1 PUSH2 0xBD4 SWAP2 SWAP1 PUSH2 0xBD8 JUMP JUMPDEST JUMPDEST POP JUMP JUMPDEST JUMPDEST DUP1 DUP3 GT ISZERO PUSH2 0xBF1 JUMPI PUSH1 0x0 DUP2 PUSH1 0x0 SWAP1 SSTORE POP PUSH1 0x1 ADD PUSH2 0xBD9 JUMP JUMPDEST POP SWAP1 JUMP JUMPDEST PUSH1 0x0 PUSH1 0x40 MLOAD SWAP1 POP SWAP1 JUMP JUMPDEST PUSH1 0x0 DUP1 REVERT JUMPDEST PUSH1 0x0 DUP1 REVERT JUMPDEST PUSH1 0x0 DUP2 SWAP1 POP SWAP2 SWAP1 POP JUMP JUMPDEST PUSH2 0xC1C DUP2 PUSH2 0xC09 JUMP JUMPDEST DUP2 EQ PUSH2 0xC27 JUMPI PUSH1 0x0 DUP1 REVERT JUMPDEST POP JUMP JUMPDEST PUSH1 0x0 DUP2 CALLDATALOAD SWAP1 POP PUSH2 0xC39 DUP2 PUSH2 0xC13 JUMP JUMPDEST SWAP3 SWAP2 POP POP JUMP JUMPDEST PUSH1 0x0 PUSH1 0x20 DUP3 DUP5 SUB SLT ISZERO PUSH2 0xC55 JUMPI PUSH2 0xC54 PUSH2 0xBFF JUMP JUMPDEST JUMPDEST PUSH1 0x0 PUSH2 0xC63 DUP5 DUP3 DUP6 ADD PUSH2 0xC2A JUMP JUMPDEST SWAP2 POP POP SWAP3 SWAP2 POP POP JUMP JUMPDEST PUSH1 0x0 PUSH20 0xFFFFFFFFFFFFFFFFFFFFFFFFFFFFFFFFFFFFFFFF DUP3 AND SWAP1 POP SWAP2 SWAP1 POP JUMP JUMPDEST PUSH1 0x0 PUSH2 0xC97 DUP3 PUSH2 0xC6C JUMP JUMPDEST SWAP1 POP SWAP2 SWAP1 POP JUMP JUMPDEST PUSH2 0xCA7 DUP2 PUSH2 0xC8C JUMP JUMPDEST DUP3 MSTORE POP POP JUMP JUMPDEST PUSH1 0x0 PUSH1 0x20 DUP3 ADD SWAP1 POP PUSH2 0xCC2 PUSH1 0x0 DUP4 ADD DUP5 PUSH2 0xC9E JUMP JUMPDEST SWAP3 SWAP2 POP POP JUMP JUMPDEST PUSH2 0xCD1 DUP2 PUSH2 0xC09 JUMP JUMPDEST DUP3 MSTORE POP POP JUMP JUMPDEST PUSH1 0x0 PUSH1 0x20 DUP3 ADD SWAP1 POP PUSH2 0xCEC PUSH1 0x0 DUP4 ADD DUP5 PUSH2 0xCC8 JUMP JUMPDEST SWAP3 SWAP2 POP POP JUMP JUMPDEST PUSH1 0x0 DUP2 MLOAD SWAP1 POP SWAP2 SWAP1 POP JUMP JUMPDEST PUSH1 0x0 DUP3 DUP3 MSTORE PUSH1 0x20 DUP3 ADD SWAP1 POP SWAP3 SWAP2 POP POP JUMP JUMPDEST PUSH1 0x0 JUMPDEST DUP4 DUP2 LT ISZERO PUSH2 0xD2C JUMPI DUP1 DUP3 ADD MLOAD DUP2 DUP5 ADD MSTORE PUSH1 0x20 DUP2 ADD SWAP1 POP PUSH2 0xD11 JUMP JUMPDEST PUSH1 0x0 DUP5 DUP5 ADD MSTORE POP POP POP POP JUMP JUMPDEST PUSH1 0x0 PUSH1 0x1F NOT PUSH1 0x1F DUP4 ADD AND SWAP1 POP SWAP2 SWAP1 POP JUMP JUMPDEST PUSH1 0x0 PUSH2 0xD54 DUP3 PUSH2 0xCF2 JUMP JUMPDEST PUSH2 0xD5E DUP2 DUP6 PUSH2 0xCFD JUMP JUMPDEST SWAP4 POP PUSH2 0xD6E DUP2 DUP6 PUSH1 0x20 DUP7 ADD PUSH2 0xD0E JUMP JUMPDEST PUSH2 0xD77 DUP2 PUSH2 0xD38 JUMP JUMPDEST DUP5 ADD SWAP2 POP POP SWAP3 SWAP2 POP POP JUMP JUMPDEST PUSH1 0x0 PUSH1 0x20 DUP3 ADD SWAP1 POP DUP2 DUP2 SUB PUSH1 0x0 DUP4 ADD MSTORE PUSH2 0xD9C DUP2 DUP5 PUSH2 0xD49 JUMP JUMPDEST SWAP1 POP SWAP3 SWAP2 POP POP JUMP JUMPDEST PUSH1 0x0 DUP1 REVERT JUMPDEST PUSH1 0x0 DUP1 REVERT JUMPDEST PUSH32 0x4E487B7100000000000000000000000000000000000000000000000000000000 PUSH1 0x0 MSTORE PUSH1 0x41 PUSH1 0x4 MSTORE PUSH1 0x24 PUSH1 0x0 REVERT JUMPDEST PUSH2 0xDE6 DUP3 PUSH2 0xD38 JUMP JUMPDEST DUP2 ADD DUP2 DUP2 LT PUSH8 0xFFFFFFFFFFFFFFFF DUP3 GT OR ISZERO PUSH2 0xE05 JUMPI PUSH2 0xE04 PUSH2 0xDAE JUMP JUMPDEST JUMPDEST DUP1 PUSH1 0x40 MSTORE POP POP POP JUMP JUMPDEST PUSH1 0x0 PUSH2 0xE18 PUSH2 0xBF5 JUMP JUMPDEST SWAP1 POP PUSH2 0xE24 DUP3 DUP3 PUSH2 0xDDD JUMP JUMPDEST SWAP2 SWAP1 POP JUMP JUMPDEST PUSH1 0x0 PUSH8 0xFFFFFFFFFFFFFFFF DUP3 GT ISZERO PUSH2 0xE44 JUMPI PUSH2 0xE43 PUSH2 0xDAE JUMP JUMPDEST JUMPDEST PUSH2 0xE4D DUP3 PUSH2 0xD38 JUMP JUMPDEST SWAP1 POP PUSH1 0x20 DUP2 ADD SWAP1 POP SWAP2 SWAP1 POP JUMP JUMPDEST DUP3 DUP2 DUP4 CALLDATACOPY PUSH1 0x0 DUP4 DUP4 ADD MSTORE POP POP POP JUMP JUMPDEST PUSH1 0x0 PUSH2 0xE7C PUSH2 0xE77 DUP5 PUSH2 0xE29 JUMP JUMPDEST PUSH2 0xE0E JUMP JUMPDEST SWAP1 POP DUP3 DUP2 MSTORE PUSH1 0x20 DUP2 ADD DUP5 DUP5 DUP5 ADD GT ISZERO PUSH2 0xE98 JUMPI PUSH2 0xE97 PUSH2 0xDA9 JUMP JUMPDEST JUMPDEST PUSH2 0xEA3 DUP5 DUP3 DUP6 PUSH2 0xE5A JUMP JUMPDEST POP SWAP4 SWAP3 POP POP POP JUMP JUMPDEST PUSH1 0x0 DUP3 PUSH1 0x1F DUP4 ADD SLT PUSH2 0xEC0 JUMPI PUSH2 0xEBF PUSH2 0xDA4 JUMP JUMPDEST JUMPDEST DUP2 CALLDATALOAD PUSH2 0xED0 DUP5 DUP3 PUSH1 0x20 DUP7 ADD PUSH2 0xE69 JUMP JUMPDEST SWAP2 POP POP SWAP3 SWAP2 POP POP JUMP JUMPDEST PUSH1 0x0 PUSH1 0x20 DUP3 DUP5 SUB SLT ISZERO PUSH2 0xEEF JUMPI PUSH2 0xEEE PUSH2 0xBFF JUMP JUMPDEST JUMPDEST PUSH1 0x0 DUP3 ADD CALLDATALOAD PUSH8 0xFFFFFFFFFFFFFFFF DUP2 GT ISZERO PUSH2 0xF0D JUMPI PUSH2 0xF0C PUSH2 0xC04 JUMP JUMPDEST JUMPDEST PUSH2 0xF19 DUP5 DUP3 DUP6 ADD PUSH2 0xEAB JUMP JUMPDEST SWAP2 POP POP SWAP3 SWAP2 POP POP JUMP JUMPDEST PUSH1 0x0 PUSH1 0x60 DUP3 ADD SWAP1 POP PUSH2 0xF37 PUSH1 0x0 DUP4 ADD DUP7 PUSH2 0xCC8 JUMP JUMPDEST PUSH2 0xF44 PUSH1 0x20 DUP4 ADD DUP6 PUSH2 0xCC8 JUMP JUMPDEST PUSH2 0xF51 PUSH1 0x40 DUP4 ADD DUP5 PUSH2 0xCC8 JUMP JUMPDEST SWAP5 SWAP4 POP POP POP POP JUMP JUMPDEST PUSH1 0x0 DUP1 PUSH1 0x40 DUP4 DUP6 SUB SLT ISZERO PUSH2 0xF70 JUMPI PUSH2 0xF6F PUSH2 0xBFF JUMP JUMPDEST JUMPDEST PUSH1 0x0 PUSH2 0xF7E DUP6 DUP3 DUP7 ADD PUSH2 0xC2A JUMP JUMPDEST SWAP3 POP POP PUSH1 0x20 PUSH2 0xF8F DUP6 DUP3 DUP7 ADD PUSH2 0xC2A JUMP JUMPDEST SWAP2 POP POP SWAP3 POP SWAP3 SWAP1 POP JUMP JUMPDEST PUSH1 0x0 DUP2 SWAP1 POP SWAP3 SWAP2 POP POP JUMP JUMPDEST PUSH1 0x0 PUSH2 0xFAF DUP3 PUSH2 0xCF2 JUMP JUMPDEST PUSH2 0xFB9 DUP2 DUP6 PUSH2 0xF99 JUMP JUMPDEST SWAP4 POP PUSH2 0xFC9 DUP2 DUP6 PUSH1 0x20 DUP7 ADD PUSH2 0xD0E JUMP JUMPDEST DUP1 DUP5 ADD SWAP2 POP POP SWAP3 SWAP2 POP POP JUMP JUMPDEST PUSH1 0x0 PUSH2 0xFE1 DUP3 DUP6 PUSH2 0xFA4 JUMP JUMPDEST SWAP2 POP PUSH2 0xFED DUP3 DUP5 PUSH2 0xFA4 JUMP JUMPDEST SWAP2 POP DUP2 SWAP1 POP SWAP4 SWAP3 POP POP POP JUMP JUMPDEST PUSH1 0x0 PUSH2 0x1005 DUP3 DUP5 PUSH2 0xFA4 JUMP JUMPDEST SWAP2 POP DUP2 SWAP1 POP SWAP3 SWAP2 POP POP JUMP JUMPDEST PUSH32 0x4E487B7100000000000000000000000000000000000000000000000000000000 PUSH1 0x0 MSTORE PUSH1 0x22 PUSH1 0x4 MSTORE PUSH1 0x24 PUSH1 0x0 REVERT JUMPDEST PUSH1 0x0 PUSH1 0x2 DUP3 DIV SWAP1 POP PUSH1 0x1 DUP3 AND DUP1 PUSH2 0x1057 JUMPI PUSH1 0x7F DUP3 AND SWAP2 POP JUMPDEST PUSH1 0x20 DUP3 LT DUP2 SUB PUSH2 0x106A JUMPI PUSH2 0x1069 PUSH2 0x1010 JUMP JUMPDEST JUMPDEST POP SWAP2 SWAP1 POP JUMP JUMPDEST PUSH32 0x67616D652069642069732031206F722032206F6E6C7900000000000000000000 PUSH1 0x0 DUP3 ADD MSTORE POP JUMP JUMPDEST PUSH1 0x0 PUSH2 0x10A6 PUSH1 0x16 DUP4 PUSH2 0xCFD JUMP JUMPDEST SWAP2 POP PUSH2 0x10B1 DUP3 PUSH2 0x1070 JUMP JUMPDEST PUSH1 0x20 DUP3 ADD SWAP1 POP SWAP2 SWAP1 POP JUMP JUMPDEST PUSH1 0x0 PUSH1 0x20 DUP3 ADD SWAP1 POP DUP2 DUP2 SUB PUSH1 0x0 DUP4 ADD MSTORE PUSH2 0x10D5 DUP2 PUSH2 0x1099 JUMP JUMPDEST SWAP1 POP SWAP2 SWAP1 POP JUMP JUMPDEST PUSH32 0x4E487B7100000000000000000000000000000000000000000000000000000000 PUSH1 0x0 MSTORE PUSH1 0x11 PUSH1 0x4 MSTORE PUSH1 0x24 PUSH1 0x0 REVERT JUMPDEST PUSH1 0x0 PUSH2 0x1116 DUP3 PUSH2 0xC09 JUMP JUMPDEST SWAP2 POP PUSH2 0x1121 DUP4 PUSH2 0xC09 JUMP JUMPDEST SWAP3 POP DUP3 DUP3 ADD SWAP1 POP DUP1 DUP3 GT ISZERO PUSH2 0x1139 JUMPI PUSH2 0x1138 PUSH2 0x10DC JUMP JUMPDEST JUMPDEST SWAP3 SWAP2 POP POP JUMP JUMPDEST PUSH1 0x0 DUP2 SWAP1 POP DUP2 PUSH1 0x0 MSTORE PUSH1 0x20 PUSH1 0x0 KECCAK256 SWAP1 POP SWAP2 SWAP1 POP JUMP JUMPDEST PUSH1 0x0 PUSH1 0x20 PUSH1 0x1F DUP4 ADD DIV SWAP1 POP SWAP2 SWAP1 POP JUMP JUMPDEST PUSH1 0x0 DUP3 DUP3 SHL SWAP1 POP SWAP3 SWAP2 POP POP JUMP JUMPDEST PUSH1 0x0 PUSH1 0x8 DUP4 MUL PUSH2 0x11A1 PUSH32 0xFFFFFFFFFFFFFFFFFFFFFFFFFFFFFFFFFFFFFFFFFFFFFFFFFFFFFFFFFFFFFFFF DUP3 PUSH2 0x1164 JUMP JUMPDEST PUSH2 0x11AB DUP7 DUP4 PUSH2 0x1164 JUMP JUMPDEST SWAP6 POP DUP1 NOT DUP5 AND SWAP4 POP DUP1 DUP7 AND DUP5 OR SWAP3 POP POP POP SWAP4 SWAP3 POP POP POP JUMP JUMPDEST PUSH1 0x0 DUP2 SWAP1 POP SWAP2 SWAP1 POP JUMP JUMPDEST PUSH1 0x0 PUSH2 0x11E8 PUSH2 0x11E3 PUSH2 0x11DE DUP5 PUSH2 0xC09 JUMP JUMPDEST PUSH2 0x11C3 JUMP JUMPDEST PUSH2 0xC09 JUMP JUMPDEST SWAP1 POP SWAP2 SWAP1 POP JUMP JUMPDEST PUSH1 0x0 DUP2 SWAP1 POP SWAP2 SWAP1 POP JUMP JUMPDEST PUSH2 0x1202 DUP4 PUSH2 0x11CD JUMP JUMPDEST PUSH2 0x1216 PUSH2 0x120E DUP3 PUSH2 0x11EF JUMP JUMPDEST DUP5 DUP5 SLOAD PUSH2 0x1171 JUMP JUMPDEST DUP3 SSTORE POP POP POP POP JUMP JUMPDEST PUSH1 0x0 SWAP1 JUMP JUMPDEST PUSH2 0x122B PUSH2 0x121E JUMP JUMPDEST PUSH2 0x1236 DUP2 DUP5 DUP5 PUSH2 0x11F9 JUMP JUMPDEST POP POP POP JUMP JUMPDEST JUMPDEST DUP2 DUP2 LT ISZERO PUSH2 0x125A JUMPI PUSH2 0x124F PUSH1 0x0 DUP3 PUSH2 0x1223 JUMP JUMPDEST PUSH1 0x1 DUP2 ADD SWAP1 POP PUSH2 0x123C JUMP JUMPDEST POP POP JUMP JUMPDEST PUSH1 0x1F DUP3 GT ISZERO PUSH2 0x129F JUMPI PUSH2 0x1270 DUP2 PUSH2 0x113F JUMP JUMPDEST PUSH2 0x1279 DUP5 PUSH2 0x1154 JUMP JUMPDEST DUP2 ADD PUSH1 0x20 DUP6 LT ISZERO PUSH2 0x1288 JUMPI DUP2 SWAP1 POP JUMPDEST PUSH2 0x129C PUSH2 0x1294 DUP6 PUSH2 0x1154 JUMP JUMPDEST DUP4 ADD DUP3 PUSH2 0x123B JUMP JUMPDEST POP POP JUMPDEST POP POP POP JUMP JUMPDEST PUSH1 0x0 DUP3 DUP3 SHR SWAP1 POP SWAP3 SWAP2 POP POP JUMP JUMPDEST PUSH1 0x0 PUSH2 0x12C2 PUSH1 0x0 NOT DUP5 PUSH1 0x8 MUL PUSH2 0x12A4 JUMP JUMPDEST NOT DUP1 DUP4 AND SWAP2 POP POP SWAP3 SWAP2 POP POP JUMP JUMPDEST PUSH1 0x0 PUSH2 0x12DB DUP4 DUP4 PUSH2 0x12B1 JUMP JUMPDEST SWAP2 POP DUP3 PUSH1 0x2 MUL DUP3 OR SWAP1 POP SWAP3 SWAP2 POP POP JUMP JUMPDEST PUSH2 0x12F4 DUP3 PUSH2 0xCF2 JUMP JUMPDEST PUSH8 0xFFFFFFFFFFFFFFFF DUP2 GT ISZERO PUSH2 0x130D JUMPI PUSH2 0x130C PUSH2 0xDAE JUMP JUMPDEST JUMPDEST PUSH2 0x1317 DUP3 SLOAD PUSH2 0x103F JUMP JUMPDEST PUSH2 0x1322 DUP3 DUP3 DUP6 PUSH2 0x125E JUMP JUMPDEST PUSH1 0x0 PUSH1 0x20 SWAP1 POP PUSH1 0x1F DUP4 GT PUSH1 0x1 DUP2 EQ PUSH2 0x1355 JUMPI PUSH1 0x0 DUP5 ISZERO PUSH2 0x1343 JUMPI DUP3 DUP8 ADD MLOAD SWAP1 POP JUMPDEST PUSH2 0x134D DUP6 DUP3 PUSH2 0x12CF JUMP JUMPDEST DUP7 SSTORE POP PUSH2 0x13B5 JUMP JUMPDEST PUSH1 0x1F NOT DUP5 AND PUSH2 0x1363 DUP7 PUSH2 0x113F JUMP JUMPDEST PUSH1 0x0 JUMPDEST DUP3 DUP2 LT ISZERO PUSH2 0x138B JUMPI DUP5 DUP10 ADD MLOAD DUP3 SSTORE PUSH1 0x1 DUP3 ADD SWAP2 POP PUSH1 0x20 DUP6 ADD SWAP5 POP PUSH1 0x20 DUP2 ADD SWAP1 POP PUSH2 0x1366 JUMP JUMPDEST DUP7 DUP4 LT ISZERO PUSH2 0x13A8 JUMPI DUP5 DUP10 ADD MLOAD PUSH2 0x13A4 PUSH1 0x1F DUP10 AND DUP3 PUSH2 0x12B1 JUMP JUMPDEST DUP4 SSTORE POP JUMPDEST PUSH1 0x1 PUSH1 0x2 DUP9 MUL ADD DUP9 SSTORE POP POP POP JUMPDEST POP POP POP POP POP POP JUMP JUMPDEST PUSH1 0x0 PUSH2 0x13C8 DUP3 PUSH2 0xC09 JUMP JUMPDEST SWAP2 POP PUSH2 0x13D3 DUP4 PUSH2 0xC09 JUMP JUMPDEST SWAP3 POP DUP3 DUP3 MUL PUSH2 0x13E1 DUP2 PUSH2 0xC09 JUMP JUMPDEST SWAP2 POP DUP3 DUP3 DIV DUP5 EQ DUP4 ISZERO OR PUSH2 0x13F8 JUMPI PUSH2 0x13F7 PUSH2 0x10DC JUMP JUMPDEST JUMPDEST POP SWAP3 SWAP2 POP POP JUMP JUMPDEST PUSH32 0x4E487B7100000000000000000000000000000000000000000000000000000000 PUSH1 0x0 MSTORE PUSH1 0x32 PUSH1 0x4 MSTORE PUSH1 0x24 PUSH1 0x0 REVERT JUMPDEST PUSH1 0x0 PUSH2 0x1439 DUP3 PUSH2 0xC09 JUMP JUMPDEST SWAP2 POP PUSH1 0x0 DUP3 SUB PUSH2 0x144C JUMPI PUSH2 0x144B PUSH2 0x10DC JUMP JUMPDEST JUMPDEST PUSH1 0x1 DUP3 SUB SWAP1 POP SWAP2 SWAP1 POP JUMP JUMPDEST PUSH1 0x0 PUSH1 0x40 DUP3 ADD SWAP1 POP PUSH2 0x146C PUSH1 0x0 DUP4 ADD DUP6 PUSH2 0xCC8 JUMP JUMPDEST PUSH2 0x1479 PUSH1 0x20 DUP4 ADD DUP5 PUSH2 0xCC8 JUMP JUMPDEST SWAP4 SWAP3 POP POP POP JUMP JUMPDEST PUSH32 0x4E487B7100000000000000000000000000000000000000000000000000000000 PUSH1 0x0 MSTORE PUSH1 0x12 PUSH1 0x4 MSTORE PUSH1 0x24 PUSH1 0x0 REVERT INVALID LOG2 PUSH5 0x6970667358 0x22 SLT KECCAK256 0xA8 CODESIZE DUP13 CALLCODE 0xA5 STOP DUP1 XOR 0xC6 0xB5 CALLDATACOPY 0xD2 PUSH0 DUP16 BALANCE PUSH8 0x36F631527A807450 LOG3 0xAD SWAP16 SMOD RETURNDATASIZE PUSH32 0x8C0364736F6C634300081A003300000000000000000000000000000000000000 "
		},
		"gasEstimates": {
			"creation": {
				"codeDepositCost": "1069800",
				"executionCost": "6120",
				"totalCost": "1075920"
			},
			"external": {
				"best(uint256)": "2840",
				"bestscores(uint256)": "infinite",
				"entries(uint256)": "infinite",
				"fetch_best(uint256)": "2923",
				"fetch_bestscore(uint256)": "infinite",
				"fetch_myscore(uint256)": "infinite",
				"fetch_mytime(uint256)": "infinite",
				"register(uint256,uint256)": "infinite",
				"scores(string)": "infinite"
			}
		},
		"methodIdentifiers": {
			"best(uint256)": "2d8e4b5f",
			"bestscores(uint256)": "e8281712",
			"entries(uint256)": "b30906d4",
			"fetch_best(uint256)": "59abede1",
			"fetch_bestscore(uint256)": "7c7e723f",
			"fetch_myscore(uint256)": "53c0c8a6",
			"fetch_mytime(uint256)": "ef6c5b1e",
			"register(uint256,uint256)": "d66d6c10",
			"scores(string)": "cd8e6543"
		}
	},
	"abi": [
		{
			"inputs": [
				{
					"internalType": "uint256",
					"name": "value",
					"type": "uint256"
				},
				{
					"internalType": "uint256",
					"name": "length",
					"type": "uint256"
				}
			],
			"name": "StringsInsufficientHexLength",
			"type": "error"
		},
		{
			"inputs": [
				{
					"internalType": "uint256",
					"name": "",
					"type": "uint256"
				}
			],
			"name": "best",
			"outputs": [
				{
					"internalType": "address",
					"name": "",
					"type": "address"
				}
			],
			"stateMutability": "view",
			"type": "function"
		},
		{
			"inputs": [
				{
					"internalType": "uint256",
					"name": "",
					"type": "uint256"
				}
			],
			"name": "bestscores",
			"outputs": [
				{
					"internalType": "uint256",
					"name": "",
					"type": "uint256"
				}
			],
			"stateMutability": "view",
			"type": "function"
		},
		{
			"inputs": [
				{
					"internalType": "uint256",
					"name": "",
					"type": "uint256"
				}
			],
			"name": "entries",
			"outputs": [
				{
					"internalType": "string",
					"name": "",
					"type": "string"
				}
			],
			"stateMutability": "view",
			"type": "function"
		},
		{
			"inputs": [
				{
					"internalType": "uint256",
					"name": "gid",
					"type": "uint256"
				}
			],
			"name": "fetch_best",
			"outputs": [
				{
					"internalType": "address",
					"name": "",
					"type": "address"
				}
			],
			"stateMutability": "view",
			"type": "function"
		},
		{
			"inputs": [
				{
					"internalType": "uint256",
					"name": "gid",
					"type": "uint256"
				}
			],
			"name": "fetch_bestscore",
			"outputs": [
				{
					"internalType": "uint256",
					"name": "",
					"type": "uint256"
				}
			],
			"stateMutability": "view",
			"type": "function"
		},
		{
			"inputs": [
				{
					"internalType": "uint256",
					"name": "gid",
					"type": "uint256"
				}
			],
			"name": "fetch_myscore",
			"outputs": [
				{
					"internalType": "uint256",
					"name": "",
					"type": "uint256"
				}
			],
			"stateMutability": "view",
			"type": "function"
		},
		{
			"inputs": [
				{
					"internalType": "uint256",
					"name": "gid",
					"type": "uint256"
				}
			],
			"name": "fetch_mytime",
			"outputs": [
				{
					"internalType": "uint256",
					"name": "",
					"type": "uint256"
				}
			],
			"stateMutability": "view",
			"type": "function"
		},
		{
			"inputs": [
				{
					"internalType": "uint256",
					"name": "score",
					"type": "uint256"
				},
				{
					"internalType": "uint256",
					"name": "game",
					"type": "uint256"
				}
			],
			"name": "register",
			"outputs": [],
			"stateMutability": "nonpayable",
			"type": "function"
		},
		{
			"inputs": [
				{
					"internalType": "string",
					"name": "",
					"type": "string"
				}
			],
			"name": "scores",
			"outputs": [
				{
					"internalType": "uint256",
					"name": "rid",
					"type": "uint256"
				},
				{
					"internalType": "uint256",
					"name": "scr",
					"type": "uint256"
				},
				{
					"internalType": "uint256",
					"name": "ts",
					"type": "uint256"
				}
			],
			"stateMutability": "view",
			"type": "function"
		}
	]
}